{
  "address": "0xe7f1725E7734CE288F8367e1Bb143E90bb3F0512",
  "abi": [
    {
      "inputs": [
        {
          "internalType": "contract EditionMetadata",
          "name": "_metadata",
          "type": "address"
        }
      ],
      "stateMutability": "nonpayable",
      "type": "constructor"
    },
    {
      "anonymous": false,
      "inputs": [
        {
          "indexed": true,
          "internalType": "address",
          "name": "owner",
          "type": "address"
        },
        {
          "indexed": true,
          "internalType": "address",
          "name": "approved",
          "type": "address"
        },
        {
          "indexed": true,
          "internalType": "uint256",
          "name": "tokenId",
          "type": "uint256"
        }
      ],
      "name": "Approval",
      "type": "event"
    },
    {
      "anonymous": false,
      "inputs": [
        {
          "indexed": true,
          "internalType": "address",
          "name": "owner",
          "type": "address"
        },
        {
          "indexed": true,
          "internalType": "address",
          "name": "operator",
          "type": "address"
        },
        {
          "indexed": false,
          "internalType": "bool",
          "name": "approved",
          "type": "bool"
        }
      ],
      "name": "ApprovalForAll",
      "type": "event"
    },
    {
      "anonymous": false,
      "inputs": [
        {
          "indexed": false,
          "internalType": "uint256",
          "name": "price",
          "type": "uint256"
        },
        {
          "indexed": false,
          "internalType": "address",
          "name": "owner",
          "type": "address"
        }
      ],
      "name": "EditionSold",
      "type": "event"
    },
    {
      "anonymous": false,
      "inputs": [
        {
          "indexed": true,
          "internalType": "address",
          "name": "previousOwner",
          "type": "address"
        },
        {
          "indexed": true,
          "internalType": "address",
          "name": "newOwner",
          "type": "address"
        }
      ],
      "name": "OwnershipTransferred",
      "type": "event"
    },
    {
      "anonymous": false,
      "inputs": [
        {
          "indexed": false,
          "internalType": "address",
          "name": "to",
          "type": "address"
        }
      ],
      "name": "PaymentFailed",
      "type": "event"
    },
    {
      "anonymous": false,
      "inputs": [
        {
          "indexed": false,
          "internalType": "uint256",
          "name": "amount",
          "type": "uint256"
        }
      ],
      "name": "PriceChanged",
      "type": "event"
    },
    {
      "anonymous": false,
      "inputs": [
        {
          "indexed": true,
          "internalType": "address",
          "name": "from",
          "type": "address"
        },
        {
          "indexed": true,
          "internalType": "address",
          "name": "to",
          "type": "address"
        },
        {
          "indexed": true,
          "internalType": "uint256",
          "name": "tokenId",
          "type": "uint256"
        }
      ],
      "name": "Transfer",
      "type": "event"
    },
    {
      "inputs": [
        {
          "internalType": "address",
          "name": "to",
          "type": "address"
        },
        {
          "internalType": "uint256",
          "name": "tokenId",
          "type": "uint256"
        }
      ],
      "name": "approve",
      "outputs": [],
      "stateMutability": "nonpayable",
      "type": "function"
    },
    {
      "inputs": [
        {
          "internalType": "address",
          "name": "owner",
          "type": "address"
        }
      ],
      "name": "balanceOf",
      "outputs": [
        {
          "internalType": "uint256",
          "name": "",
          "type": "uint256"
        }
      ],
      "stateMutability": "view",
      "type": "function"
    },
    {
      "inputs": [
        {
          "internalType": "uint256",
          "name": "tokenId",
          "type": "uint256"
        }
      ],
      "name": "burn",
      "outputs": [],
      "stateMutability": "nonpayable",
      "type": "function"
    },
    {
      "inputs": [],
      "name": "contentHash",
      "outputs": [
        {
          "internalType": "bytes32",
          "name": "",
          "type": "bytes32"
        }
      ],
      "stateMutability": "view",
      "type": "function"
    },
    {
      "inputs": [],
      "name": "contentUrl",
      "outputs": [
        {
          "internalType": "string",
          "name": "",
          "type": "string"
        }
      ],
      "stateMutability": "view",
      "type": "function"
    },
    {
      "inputs": [],
      "name": "description",
      "outputs": [
        {
          "internalType": "string",
          "name": "",
          "type": "string"
        }
      ],
      "stateMutability": "view",
      "type": "function"
    },
    {
      "inputs": [
        {
          "internalType": "uint256",
          "name": "tokenId",
          "type": "uint256"
        }
      ],
      "name": "getApproved",
      "outputs": [
        {
          "internalType": "address",
          "name": "",
          "type": "address"
        }
      ],
      "stateMutability": "view",
      "type": "function"
    },
    {
      "inputs": [],
      "name": "getURI",
      "outputs": [
        {
          "internalType": "string",
          "name": "",
          "type": "string"
        },
        {
          "internalType": "bytes32",
          "name": "",
          "type": "bytes32"
        },
        {
          "internalType": "string",
          "name": "",
          "type": "string"
        }
      ],
      "stateMutability": "view",
      "type": "function"
    },
    {
      "inputs": [
        {
          "internalType": "address",
          "name": "_owner",
          "type": "address"
        },
        {
          "internalType": "string",
          "name": "_name",
          "type": "string"
        },
        {
          "internalType": "string",
          "name": "_symbol",
          "type": "string"
        },
        {
          "internalType": "string",
          "name": "_description",
          "type": "string"
        },
        {
          "internalType": "string",
          "name": "_contentUrl",
          "type": "string"
        },
        {
          "internalType": "bytes32",
          "name": "_contentHash",
          "type": "bytes32"
        },
        {
          "internalType": "string",
          "name": "_thumbnailUrl",
          "type": "string"
        },
        {
          "internalType": "uint64",
          "name": "_size",
          "type": "uint64"
        },
        {
          "internalType": "uint16",
          "name": "_royalties",
          "type": "uint16"
        },
        {
          "components": [
            {
              "internalType": "address payable",
              "name": "holder",
              "type": "address"
            },
            {
              "internalType": "uint16",
              "name": "bps",
              "type": "uint16"
            }
          ],
          "internalType": "struct MintableEditions.Shares[]",
          "name": "_shares",
          "type": "tuple[]"
        }
      ],
      "name": "initialize",
      "outputs": [],
      "stateMutability": "nonpayable",
      "type": "function"
    },
    {
      "inputs": [
        {
          "internalType": "address",
          "name": "owner",
          "type": "address"
        },
        {
          "internalType": "address",
          "name": "operator",
          "type": "address"
        }
      ],
      "name": "isApprovedForAll",
      "outputs": [
        {
          "internalType": "bool",
          "name": "",
          "type": "bool"
        }
      ],
      "stateMutability": "view",
      "type": "function"
    },
    {
      "inputs": [],
      "name": "mint",
      "outputs": [
        {
          "internalType": "uint256",
          "name": "",
          "type": "uint256"
        }
      ],
      "stateMutability": "nonpayable",
      "type": "function"
    },
    {
      "inputs": [
        {
          "internalType": "address[]",
          "name": "recipients",
          "type": "address[]"
        }
      ],
      "name": "mintAndTransfer",
      "outputs": [
        {
          "internalType": "uint256",
          "name": "",
          "type": "uint256"
        }
      ],
      "stateMutability": "nonpayable",
      "type": "function"
    },
    {
      "inputs": [],
      "name": "mintable",
      "outputs": [
        {
          "internalType": "uint256",
          "name": "",
          "type": "uint256"
        }
      ],
      "stateMutability": "view",
      "type": "function"
    },
    {
      "inputs": [],
      "name": "name",
      "outputs": [
        {
          "internalType": "string",
          "name": "",
          "type": "string"
        }
      ],
      "stateMutability": "view",
      "type": "function"
    },
    {
      "inputs": [],
      "name": "owner",
      "outputs": [
        {
          "internalType": "address",
          "name": "",
          "type": "address"
        }
      ],
      "stateMutability": "view",
      "type": "function"
    },
    {
      "inputs": [
        {
          "internalType": "uint256",
          "name": "tokenId",
          "type": "uint256"
        }
      ],
      "name": "ownerOf",
      "outputs": [
        {
          "internalType": "address",
          "name": "",
          "type": "address"
        }
      ],
      "stateMutability": "view",
      "type": "function"
    },
    {
      "inputs": [],
      "name": "price",
      "outputs": [
        {
          "internalType": "uint256",
          "name": "",
          "type": "uint256"
        }
      ],
      "stateMutability": "view",
      "type": "function"
    },
    {
      "inputs": [],
      "name": "purchase",
      "outputs": [
        {
          "internalType": "uint256",
          "name": "",
          "type": "uint256"
        }
      ],
      "stateMutability": "payable",
      "type": "function"
    },
    {
      "inputs": [],
      "name": "renounceOwnership",
      "outputs": [],
      "stateMutability": "nonpayable",
      "type": "function"
    },
    {
      "inputs": [],
      "name": "royalties",
      "outputs": [
        {
          "internalType": "uint16",
          "name": "",
          "type": "uint16"
        }
      ],
      "stateMutability": "view",
      "type": "function"
    },
    {
      "inputs": [
        {
          "internalType": "uint256",
          "name": "",
          "type": "uint256"
        },
        {
          "internalType": "uint256",
          "name": "_value",
          "type": "uint256"
        }
      ],
      "name": "royaltyInfo",
      "outputs": [
        {
          "internalType": "address",
          "name": "receiver",
          "type": "address"
        },
        {
          "internalType": "uint256",
          "name": "royaltyAmount",
          "type": "uint256"
        }
      ],
      "stateMutability": "view",
      "type": "function"
    },
    {
      "inputs": [
        {
          "internalType": "address",
          "name": "from",
          "type": "address"
        },
        {
          "internalType": "address",
          "name": "to",
          "type": "address"
        },
        {
          "internalType": "uint256",
          "name": "tokenId",
          "type": "uint256"
        }
      ],
      "name": "safeTransferFrom",
      "outputs": [],
      "stateMutability": "nonpayable",
      "type": "function"
    },
    {
      "inputs": [
        {
          "internalType": "address",
          "name": "from",
          "type": "address"
        },
        {
          "internalType": "address",
          "name": "to",
          "type": "address"
        },
        {
          "internalType": "uint256",
          "name": "tokenId",
          "type": "uint256"
        },
        {
          "internalType": "bytes",
          "name": "_data",
          "type": "bytes"
        }
      ],
      "name": "safeTransferFrom",
      "outputs": [],
      "stateMutability": "nonpayable",
      "type": "function"
    },
    {
      "inputs": [
        {
          "internalType": "address",
          "name": "operator",
          "type": "address"
        },
        {
          "internalType": "bool",
          "name": "approved",
          "type": "bool"
        }
      ],
      "name": "setApprovalForAll",
      "outputs": [],
      "stateMutability": "nonpayable",
      "type": "function"
    },
    {
      "inputs": [
        {
          "components": [
            {
              "internalType": "address",
              "name": "minter",
              "type": "address"
            },
            {
              "internalType": "uint16",
              "name": "amount",
              "type": "uint16"
            }
          ],
          "internalType": "struct MintableEditions.Allowance[]",
          "name": "allowances",
          "type": "tuple[]"
        }
      ],
      "name": "setApprovedMinters",
      "outputs": [],
      "stateMutability": "nonpayable",
      "type": "function"
    },
    {
      "inputs": [
        {
          "internalType": "uint256",
          "name": "_wei",
          "type": "uint256"
        }
      ],
      "name": "setPrice",
      "outputs": [],
      "stateMutability": "nonpayable",
      "type": "function"
    },
    {
      "inputs": [],
      "name": "shake",
      "outputs": [],
      "stateMutability": "nonpayable",
      "type": "function"
    },
    {
      "inputs": [
        {
          "internalType": "address",
          "name": "",
          "type": "address"
        }
      ],
      "name": "shares",
      "outputs": [
        {
          "internalType": "uint16",
          "name": "",
          "type": "uint16"
        }
      ],
      "stateMutability": "view",
      "type": "function"
    },
    {
      "inputs": [],
      "name": "size",
      "outputs": [
        {
          "internalType": "uint64",
          "name": "",
          "type": "uint64"
        }
      ],
      "stateMutability": "view",
      "type": "function"
    },
    {
      "inputs": [
        {
          "internalType": "bytes4",
          "name": "interfaceId",
          "type": "bytes4"
        }
      ],
      "name": "supportsInterface",
      "outputs": [
        {
          "internalType": "bool",
          "name": "",
          "type": "bool"
        }
      ],
      "stateMutability": "view",
      "type": "function"
    },
    {
      "inputs": [],
      "name": "symbol",
      "outputs": [
        {
          "internalType": "string",
          "name": "",
          "type": "string"
        }
      ],
      "stateMutability": "view",
      "type": "function"
    },
    {
      "inputs": [],
      "name": "thumbnailUrl",
      "outputs": [
        {
          "internalType": "string",
          "name": "",
          "type": "string"
        }
      ],
      "stateMutability": "view",
      "type": "function"
    },
    {
      "inputs": [
        {
          "internalType": "uint256",
          "name": "tokenId",
          "type": "uint256"
        }
      ],
      "name": "tokenURI",
      "outputs": [
        {
          "internalType": "string",
          "name": "",
          "type": "string"
        }
      ],
      "stateMutability": "view",
      "type": "function"
    },
    {
      "inputs": [],
      "name": "totalSupply",
      "outputs": [
        {
          "internalType": "uint256",
          "name": "",
          "type": "uint256"
        }
      ],
      "stateMutability": "view",
      "type": "function"
    },
    {
      "inputs": [
        {
          "internalType": "address",
          "name": "from",
          "type": "address"
        },
        {
          "internalType": "address",
          "name": "to",
          "type": "address"
        },
        {
          "internalType": "uint256",
          "name": "tokenId",
          "type": "uint256"
        }
      ],
      "name": "transferFrom",
      "outputs": [],
      "stateMutability": "nonpayable",
      "type": "function"
    },
    {
      "inputs": [
        {
          "internalType": "address",
          "name": "newOwner",
          "type": "address"
        }
      ],
      "name": "transferOwnership",
      "outputs": [],
      "stateMutability": "nonpayable",
      "type": "function"
    },
    {
      "inputs": [
        {
          "internalType": "string",
          "name": "_contentUrl",
          "type": "string"
        },
        {
          "internalType": "string",
          "name": "_thumbnailUrl",
          "type": "string"
        }
      ],
      "name": "updateEditionsURLs",
      "outputs": [],
      "stateMutability": "nonpayable",
      "type": "function"
    },
    {
      "inputs": [],
      "name": "withdraw",
      "outputs": [],
      "stateMutability": "nonpayable",
      "type": "function"
    }
  ],
  "transactionHash": "0xca1d830e63814900f0a750b9bf080923a5fd39ff36e19a017923ac4c3c7354ff",
  "args": [
    "0x5FbDB2315678afecb367f032d93F642f64180aa3"
  ],
  "solcInputHash": "0c0658d873e75a15781f23104693522d",
  "bytecode": "0x60a06040523480156200001157600080fd5b506040516200470038038062004700833981016040819052620000349162000101565b600054610100900460ff16806200004e575060005460ff16155b620000b65760405162461bcd60e51b815260206004820152602e60248201527f496e697469616c697a61626c653a20636f6e747261637420697320616c72656160448201526d191e481a5b9a5d1a585b1a5e995960921b606482015260840160405180910390fd5b600054610100900460ff16158015620000d9576000805461ffff19166101011790555b6001600160a01b0382166080528015620000f9576000805461ff00191690555b505062000133565b6000602082840312156200011457600080fd5b81516001600160a01b03811681146200012c57600080fd5b9392505050565b6080516145b16200014f6000396000611ba801526145b16000f3fe6080604052600436106102855760003560e01c80637284e41611610153578063a22cb465116100cb578063d7b97ef61161007f578063f053dc5c11610064578063f053dc5c14610735578063f0553be71461075c578063f2fde38b1461077c57600080fd5b8063d7b97ef6146106bf578063e985e9c5146106df57600080fd5b8063b88d4fde116100b0578063b88d4fde1461063b578063c87b56dd1461065b578063ce7c2ac21461067b57600080fd5b8063a22cb46514610606578063b4db8f451461062657600080fd5b80638da5cb5b11610122578063949d225d11610107578063949d225d146105a157806395d89b41146105db578063a035b1fe146105f057600080fd5b80638da5cb5b1461056c57806391b7f5ed1461058157600080fd5b80637284e416146105095780637754305c1461051e578063825f98d414610542578063850710c31461055757600080fd5b80633ccfd60b11610201578063646c2e33116101b557806366412c011161019a57806366412c01146104b457806370a08231146104d4578063715018a6146104f457600080fd5b8063646c2e331461049657806364edfbf0146104ac57600080fd5b806342966c68116101e657806342966c68146104415780634bf365df146104615780636352211e1461047657600080fd5b80633ccfd60b1461040c57806342842e0e1461042157600080fd5b80631249c58b1161025857806318160ddd1161023d57806318160ddd1461038b57806323b872dd146103a05780632a55205a146103c057600080fd5b80631249c58b14610348578063160abd051461036b57600080fd5b806301ffc9a71461028a57806306fdde03146102bf578063081812fc146102e1578063095ea7b314610326575b600080fd5b34801561029657600080fd5b506102aa6102a5366004613940565b61079c565b60405190151581526020015b60405180910390f35b3480156102cb57600080fd5b506102d46107f8565b6040516102b691906139da565b3480156102ed57600080fd5b506103016102fc3660046139ed565b61088a565b60405173ffffffffffffffffffffffffffffffffffffffff90911681526020016102b6565b34801561033257600080fd5b50610346610341366004613a38565b610969565b005b34801561035457600080fd5b5061035d610af6565b6040519081526020016102b6565b34801561037757600080fd5b50610346610386366004613c97565b610c69565b34801561039757600080fd5b5061035d611049565b3480156103ac57600080fd5b506103466103bb366004613dcb565b611065565b3480156103cc57600080fd5b506103e06103db366004613e0c565b611107565b6040805173ffffffffffffffffffffffffffffffffffffffff90931683526020830191909152016102b6565b34801561041857600080fd5b50610346611181565b34801561042d57600080fd5b5061034661043c366004613dcb565b61118c565b34801561044d57600080fd5b5061034661045c3660046139ed565b6111a7565b34801561046d57600080fd5b5061035d611222565b34801561048257600080fd5b506103016104913660046139ed565b61127a565b3480156104a257600080fd5b5061035d60cc5481565b61035d61132c565b3480156104c057600080fd5b506103466104cf366004613e2e565b6114a4565b3480156104e057600080fd5b5061035d6104ef366004613ef5565b6115e2565b34801561050057600080fd5b506103466116b0565b34801561051557600080fd5b506102d4611740565b34801561052a57600080fd5b506105336117ce565b6040516102b693929190613f12565b34801561054e57600080fd5b506103466118fe565b34801561056357600080fd5b506102d461195a565b34801561057857600080fd5b50610301611967565b34801561058d57600080fd5b5061034661059c3660046139ed565b611988565b3480156105ad57600080fd5b5060ce546105c29067ffffffffffffffff1681565b60405167ffffffffffffffff90911681526020016102b6565b3480156105e757600080fd5b506102d4611a49565b3480156105fc57600080fd5b5061035d60d05481565b34801561061257600080fd5b50610346610621366004613f47565b611a58565b34801561063257600080fd5b506102d4611a63565b34801561064757600080fd5b50610346610656366004613f85565b611a70565b34801561066757600080fd5b506102d46106763660046139ed565b611b18565b34801561068757600080fd5b506106ac610696366004613ef5565b60d26020526000908152604090205461ffff1681565b60405161ffff90911681526020016102b6565b3480156106cb57600080fd5b5061035d6106da366004614005565b611c9f565b3480156106eb57600080fd5b506102aa6106fa366004614094565b73ffffffffffffffffffffffffffffffffffffffff9182166000908152606a6020908152604080832093909416825291909152205460ff1690565b34801561074157600080fd5b5060ce546106ac9068010000000000000000900461ffff1681565b34801561076857600080fd5b506103466107773660046140c2565b611e55565b34801561078857600080fd5b50610346610797366004613ef5565b611f6d565b60007f2a55205a000000000000000000000000000000000000000000000000000000007fffffffff00000000000000000000000000000000000000000000000000000000831614806107f257506107f28261209f565b92915050565b60606065805461080790614126565b80601f016020809104026020016040519081016040528092919081815260200182805461083390614126565b80156108805780601f1061085557610100808354040283529160200191610880565b820191906000526020600020905b81548152906001019060200180831161086357829003601f168201915b5050505050905090565b60008181526067602052604081205473ffffffffffffffffffffffffffffffffffffffff16610940576040517f08c379a000000000000000000000000000000000000000000000000000000000815260206004820152602c60248201527f4552433732313a20617070726f76656420717565727920666f72206e6f6e657860448201527f697374656e7420746f6b656e000000000000000000000000000000000000000060648201526084015b60405180910390fd5b5060009081526069602052604090205473ffffffffffffffffffffffffffffffffffffffff1690565b60006109748261127a565b90508073ffffffffffffffffffffffffffffffffffffffff168373ffffffffffffffffffffffffffffffffffffffff161415610a32576040517f08c379a000000000000000000000000000000000000000000000000000000000815260206004820152602160248201527f4552433732313a20617070726f76616c20746f2063757272656e74206f776e6560448201527f72000000000000000000000000000000000000000000000000000000000000006064820152608401610937565b3373ffffffffffffffffffffffffffffffffffffffff82161480610a5b5750610a5b81336106fa565b610ae7576040517f08c379a000000000000000000000000000000000000000000000000000000000815260206004820152603860248201527f4552433732313a20617070726f76652063616c6c6572206973206e6f74206f7760448201527f6e6572206e6f7220617070726f76656420666f7220616c6c00000000000000006064820152608401610937565b610af18383612182565b505050565b6000610b00612222565b610b66576040517f08c379a000000000000000000000000000000000000000000000000000000000815260206004820152601360248201527f4d696e74696e67206e6f7420616c6c6f776564000000000000000000000000006044820152606401610937565b604080516001808252818301909252600091602080830190803683370190505090503381600081518110610b9c57610b9c61417a565b73ffffffffffffffffffffffffffffffffffffffff9092166020928302919091019091015233610bca611967565b73ffffffffffffffffffffffffffffffffffffffff1614158015610c1a57506000805260cf6020527fe02c59459e6ae69bba35526a32783b104c6119df0d640a9ac4990ec2f8d493a95461ffff16155b15610c5a5733600090815260cf60205260408120805461ffff1691610c3e836141d8565b91906101000a81548161ffff021916908361ffff160217905550505b610c638161229c565b91505090565b600054610100900460ff1680610c82575060005460ff16155b610d0e576040517f08c379a000000000000000000000000000000000000000000000000000000000815260206004820152602e60248201527f496e697469616c697a61626c653a20636f6e747261637420697320616c72656160448201527f647920696e697469616c697a65640000000000000000000000000000000000006064820152608401610937565b600054610100900460ff16158015610d4d57600080547fffffffffffffffffffffffffffffffffffffffffffffffffffffffffffff0000166101011790555b610d578a8a61237a565b610d5f6124ab565b610d688b611f6d565b8751610d7b9060ca9060208b0190613879565b506000875111610de7576040517f08c379a000000000000000000000000000000000000000000000000000000000815260206004820152601160248201527f456d70747920636f6e74656e742055524c0000000000000000000000000000006044820152606401610937565b8651610dfa9060cb9060208a0190613879565b5060cc8690558451610e139060cd906020880190613879565b5060ce80547fffffffffffffffffffffffffffffffffffffffffffffffff00000000000000001667ffffffffffffffff861617905560c9805460010190556127108361ffff1610610ec0576040517f08c379a000000000000000000000000000000000000000000000000000000000815260206004820152601260248201527f526f79616c7469657320746f6f206869676800000000000000000000000000006044820152606401610937565b60ce80547fffffffffffffffffffffffffffffffffffffffffffff0000ffffffffffffffff166801000000000000000061ffff8616021790556000805b8351811015610f8757610f4a848281518110610f1b57610f1b61417a565b602002602001015160000151858381518110610f3957610f3961417a565b6020026020010151602001516125d0565b838181518110610f5c57610f5c61417a565b60200260200101516020015182610f739190614214565b915080610f7f8161423a565b915050610efd565b506127108161ffff1610610ff7576040517f08c379a000000000000000000000000000000000000000000000000000000000815260206004820152600f60248201527f53686172657320746f6f206869676800000000000000000000000000000000006044820152606401610937565b61100c8c61100783612710614273565b6125d0565b50801561103c57600080547fffffffffffffffffffffffffffffffffffffffffffffffffffffffffffff00ff1690555b5050505050505050505050565b6000600161105660c95490565b6110609190614296565b905090565b611070335b8261280e565b6110fc576040517f08c379a000000000000000000000000000000000000000000000000000000000815260206004820152603160248201527f4552433732313a207472616e736665722063616c6c6572206973206e6f74206f60448201527f776e6572206e6f7220617070726f7665640000000000000000000000000000006064820152608401610937565b610af183838361297e565b60008080611113611967565b73ffffffffffffffffffffffffffffffffffffffff16141561114257611137611967565b60009150915061117a565b61114a611967565b60ce546127109061116b9068010000000000000000900461ffff16866142ad565b61117591906142ea565b915091505b9250929050565b61118a33612be5565b565b610af183838360405180602001604052806000815250611a70565b6111b03361106a565b611216576040517f08c379a000000000000000000000000000000000000000000000000000000000815260206004820152600c60248201527f4e6f7420617070726f76656400000000000000000000000000000000000000006044820152606401610937565b61121f81612d18565b50565b600061122d60c95490565b60ce5467ffffffffffffffff161561125c5760ce546112579067ffffffffffffffff166001614325565b611266565b67ffffffffffffffff5b67ffffffffffffffff166110609190614296565b60008181526067602052604081205473ffffffffffffffffffffffffffffffffffffffff16806107f2576040517f08c379a000000000000000000000000000000000000000000000000000000000815260206004820152602960248201527f4552433732313a206f776e657220717565727920666f72206e6f6e657869737460448201527f656e7420746f6b656e00000000000000000000000000000000000000000000006064820152608401610937565b60008060d05411611399576040517f08c379a000000000000000000000000000000000000000000000000000000000815260206004820152600c60248201527f4e6f7420666f722073616c6500000000000000000000000000000000000000006044820152606401610937565b60d0543414611404576040517f08c379a000000000000000000000000000000000000000000000000000000000815260206004820152600b60248201527f57726f6e672070726963650000000000000000000000000000000000000000006044820152606401610937565b60408051600180825281830190925260009160208083019080368337019050509050338160008151811061143a5761143a61417a565b73ffffffffffffffffffffffffffffffffffffffff90921660209283029190910182015260d0546040805191825233928201929092527f60a6c75698fadb72223808131f9f9bb9db3afa32122db6d94fb8fc985a504baa910160405180910390a1610c638161229c565b336114ad611967565b73ffffffffffffffffffffffffffffffffffffffff161461152a576040517f08c379a000000000000000000000000000000000000000000000000000000000815260206004820181905260248201527f4f776e61626c653a2063616c6c6572206973206e6f7420746865206f776e65726044820152606401610937565b60005b81518110156115de578181815181106115485761154861417a565b60200260200101516020015160cf600084848151811061156a5761156a61417a565b6020908102919091018101515173ffffffffffffffffffffffffffffffffffffffff16825281019190915260400160002080547fffffffffffffffffffffffffffffffffffffffffffffffffffffffffffff00001661ffff92909216919091179055806115d68161423a565b91505061152d565b5050565b600073ffffffffffffffffffffffffffffffffffffffff8216611687576040517f08c379a000000000000000000000000000000000000000000000000000000000815260206004820152602a60248201527f4552433732313a2062616c616e636520717565727920666f7220746865207a6560448201527f726f2061646472657373000000000000000000000000000000000000000000006064820152608401610937565b5073ffffffffffffffffffffffffffffffffffffffff1660009081526068602052604090205490565b336116b9611967565b73ffffffffffffffffffffffffffffffffffffffff1614611736576040517f08c379a000000000000000000000000000000000000000000000000000000000815260206004820181905260248201527f4f776e61626c653a2063616c6c6572206973206e6f7420746865206f776e65726044820152606401610937565b61118a6000612de5565b60ca805461174d90614126565b80601f016020809104026020016040519081016040528092919081815260200182805461177990614126565b80156117c65780601f1061179b576101008083540402835291602001916117c6565b820191906000526020600020905b8154815290600101906020018083116117a957829003601f168201915b505050505081565b60606000606060cb60cc5460cd8280546117e790614126565b80601f016020809104026020016040519081016040528092919081815260200182805461181390614126565b80156118605780601f1061183557610100808354040283529160200191611860565b820191906000526020600020905b81548152906001019060200180831161184357829003601f168201915b5050505050925080805461187390614126565b80601f016020809104026020016040519081016040528092919081815260200182805461189f90614126565b80156118ec5780601f106118c1576101008083540402835291602001916118ec565b820191906000526020600020905b8154815290600101906020018083116118cf57829003601f168201915b50505050509050925092509250909192565b60005b60d15481101561121f5761194860d182815481106119215761192161417a565b60009182526020909120015473ffffffffffffffffffffffffffffffffffffffff16612be5565b806119528161423a565b915050611901565b60cb805461174d90614126565b600061106060975473ffffffffffffffffffffffffffffffffffffffff1690565b33611991611967565b73ffffffffffffffffffffffffffffffffffffffff1614611a0e576040517f08c379a000000000000000000000000000000000000000000000000000000000815260206004820181905260248201527f4f776e61626c653a2063616c6c6572206973206e6f7420746865206f776e65726044820152606401610937565b60d08190556040518181527fa6dc15bdb68da224c66db4b3838d9a2b205138e8cff6774e57d0af91e196d6229060200160405180910390a150565b60606066805461080790614126565b6115de338383612e5c565b60cd805461174d90614126565b611a7a338361280e565b611b06576040517f08c379a000000000000000000000000000000000000000000000000000000000815260206004820152603160248201527f4552433732313a207472616e736665722063616c6c6572206973206e6f74206f60448201527f776e6572206e6f7220617070726f7665640000000000000000000000000000006064820152608401610937565b611b1284848484612f8a565b50505050565b60008181526067602052604090205460609073ffffffffffffffffffffffffffffffffffffffff16611ba6576040517f08c379a000000000000000000000000000000000000000000000000000000000815260206004820152601560248201527f45646974696f6e20646f65736e277420657869737400000000000000000000006044820152606401610937565b7f000000000000000000000000000000000000000000000000000000000000000073ffffffffffffffffffffffffffffffffffffffff1663a50e6a68611bea6107f8565b60ce546040517fffffffff0000000000000000000000000000000000000000000000000000000060e085901b168152611c3c929160ca9160cb9160cd918a9167ffffffffffffffff169060040161441f565b600060405180830381865afa158015611c59573d6000803e3d6000fd5b505050506040513d6000823e601f3d9081017fffffffffffffffffffffffffffffffffffffffffffffffffffffffffffffffe01682016040526107f29190810190614490565b6000611ca9612222565b611d0f576040517f08c379a000000000000000000000000000000000000000000000000000000000815260206004820152601360248201527f4d696e74696e67206e6f7420616c6c6f776564000000000000000000000000006044820152606401610937565b33611d18611967565b73ffffffffffffffffffffffffffffffffffffffff1614158015611d6857506000805260cf6020527fe02c59459e6ae69bba35526a32783b104c6119df0d640a9ac4990ec2f8d493a95461ffff16155b15611e4c57815133600090815260cf602052604090205461ffff161015611deb576040517f08c379a000000000000000000000000000000000000000000000000000000000815260206004820152601260248201527f416c6c6f77616e636520657863656564656400000000000000000000000000006044820152606401610937565b815133600090815260cf6020526040902054611e0b919061ffff16614273565b33600090815260cf6020526040902080547fffffffffffffffffffffffffffffffffffffffffffffffffffffffffffff00001661ffff929092169190911790555b6107f28261229c565b33611e5e611967565b73ffffffffffffffffffffffffffffffffffffffff1614611edb576040517f08c379a000000000000000000000000000000000000000000000000000000000815260206004820181905260248201527f4f776e61626c653a2063616c6c6572206973206e6f7420746865206f776e65726044820152606401610937565b6000825111611f46576040517f08c379a000000000000000000000000000000000000000000000000000000000815260206004820152601160248201527f456d70747920636f6e74656e742055524c0000000000000000000000000000006044820152606401610937565b8151611f599060cb906020850190613879565b508051610af19060cd906020840190613879565b33611f76611967565b73ffffffffffffffffffffffffffffffffffffffff1614611ff3576040517f08c379a000000000000000000000000000000000000000000000000000000000815260206004820181905260248201527f4f776e61626c653a2063616c6c6572206973206e6f7420746865206f776e65726044820152606401610937565b73ffffffffffffffffffffffffffffffffffffffff8116612096576040517f08c379a000000000000000000000000000000000000000000000000000000000815260206004820152602660248201527f4f776e61626c653a206e6577206f776e657220697320746865207a65726f206160448201527f64647265737300000000000000000000000000000000000000000000000000006064820152608401610937565b61121f81612de5565b60007fffffffff0000000000000000000000000000000000000000000000000000000082167f80ac58cd00000000000000000000000000000000000000000000000000000000148061213257507fffffffff0000000000000000000000000000000000000000000000000000000082167f5b5e139f00000000000000000000000000000000000000000000000000000000145b806107f257507f01ffc9a7000000000000000000000000000000000000000000000000000000007fffffffff000000000000000000000000000000000000000000000000000000008316146107f2565b600081815260696020526040902080547fffffffffffffffffffffffff00000000000000000000000000000000000000001673ffffffffffffffffffffffffffffffffffffffff841690811790915581906121dc8261127a565b73ffffffffffffffffffffffffffffffffffffffff167f8c5be1e5ebec7d5bd14f71427d1e84f3dd0314c0f7b2291e5b200ac8c7c3b92560405160405180910390a45050565b60003361222d611967565b73ffffffffffffffffffffffffffffffffffffffff16148061227c57506000805260cf6020527fe02c59459e6ae69bba35526a32783b104c6119df0d640a9ac4990ec2f8d493a95461ffff1615155b8061106057505033600090815260cf602052604090205461ffff16151590565b600081516122a8611222565b67ffffffffffffffff16101561231a576040517f08c379a000000000000000000000000000000000000000000000000000000000815260206004820152600860248201527f536f6c64206f75740000000000000000000000000000000000000000000000006044820152606401610937565b60005b82518110156123715761235183828151811061233b5761233b61417a565b602002602001015161234c60c95490565b61302d565b61235f60c980546001019055565b806123698161423a565b91505061231d565b5060c9546107f2565b600054610100900460ff1680612393575060005460ff16155b61241f576040517f08c379a000000000000000000000000000000000000000000000000000000000815260206004820152602e60248201527f496e697469616c697a61626c653a20636f6e747261637420697320616c72656160448201527f647920696e697469616c697a65640000000000000000000000000000000000006064820152608401610937565b600054610100900460ff1615801561245e57600080547fffffffffffffffffffffffffffffffffffffffffffffffffffffffffffff0000166101011790555b6124666131ef565b61246e6131ef565b6124788383613303565b8015610af157600080547fffffffffffffffffffffffffffffffffffffffffffffffffffffffffffff00ff169055505050565b600054610100900460ff16806124c4575060005460ff16155b612550576040517f08c379a000000000000000000000000000000000000000000000000000000000815260206004820152602e60248201527f496e697469616c697a61626c653a20636f6e747261637420697320616c72656160448201527f647920696e697469616c697a65640000000000000000000000000000000000006064820152608401610937565b600054610100900460ff1615801561258f57600080547fffffffffffffffffffffffffffffffffffffffffffffffffffffffffffff0000166101011790555b6125976131ef565b61259f613442565b801561121f57600080547fffffffffffffffffffffffffffffffffffffffffffffffffffffffffffff00ff16905550565b73ffffffffffffffffffffffffffffffffffffffff821661264d576040517f08c379a000000000000000000000000000000000000000000000000000000000815260206004820152601b60248201527f5368617265686f6c646572206973207a65726f206164647265737300000000006044820152606401610937565b60008161ffff1611801561266757506127108161ffff1611155b6126cd576040517f08c379a000000000000000000000000000000000000000000000000000000000815260206004820152601260248201527f5368617265732061726520696e76616c696400000000000000000000000000006044820152606401610937565b73ffffffffffffffffffffffffffffffffffffffff8216600090815260d2602052604090205461ffff161561275e576040517f08c379a000000000000000000000000000000000000000000000000000000000815260206004820152601e60248201527f5368617265686f6c64657220616c7265616479206861732073686172657300006044820152606401610937565b60d18054600181019091557f695fb3134ad82c3b8022bc5464edd0bcc9424ef672b52245dcb6ab2374327ce30180547fffffffffffffffffffffffff00000000000000000000000000000000000000001673ffffffffffffffffffffffffffffffffffffffff939093169283179055600091825260d2602052604090912080547fffffffffffffffffffffffffffffffffffffffffffffffffffffffffffff00001661ffff909216919091179055565b60008181526067602052604081205473ffffffffffffffffffffffffffffffffffffffff166128bf576040517f08c379a000000000000000000000000000000000000000000000000000000000815260206004820152602c60248201527f4552433732313a206f70657261746f7220717565727920666f72206e6f6e657860448201527f697374656e7420746f6b656e00000000000000000000000000000000000000006064820152608401610937565b60006128ca8361127a565b90508073ffffffffffffffffffffffffffffffffffffffff168473ffffffffffffffffffffffffffffffffffffffff16148061293957508373ffffffffffffffffffffffffffffffffffffffff166129218461088a565b73ffffffffffffffffffffffffffffffffffffffff16145b80612976575073ffffffffffffffffffffffffffffffffffffffff8082166000908152606a602090815260408083209388168352929052205460ff165b949350505050565b8273ffffffffffffffffffffffffffffffffffffffff1661299e8261127a565b73ffffffffffffffffffffffffffffffffffffffff1614612a41576040517f08c379a000000000000000000000000000000000000000000000000000000000815260206004820152602960248201527f4552433732313a207472616e73666572206f6620746f6b656e2074686174206960448201527f73206e6f74206f776e00000000000000000000000000000000000000000000006064820152608401610937565b73ffffffffffffffffffffffffffffffffffffffff8216612ae3576040517f08c379a0000000000000000000000000000000000000000000000000000000008152602060048201526024808201527f4552433732313a207472616e7366657220746f20746865207a65726f2061646460448201527f72657373000000000000000000000000000000000000000000000000000000006064820152608401610937565b612aee600082612182565b73ffffffffffffffffffffffffffffffffffffffff83166000908152606860205260408120805460019290612b24908490614296565b909155505073ffffffffffffffffffffffffffffffffffffffff82166000908152606860205260408120805460019290612b5f908490614507565b909155505060008181526067602052604080822080547fffffffffffffffffffffffff00000000000000000000000000000000000000001673ffffffffffffffffffffffffffffffffffffffff86811691821790925591518493918716917fddf252ad1be2c89b69c2b068fc378daa952ba7f163c4a11628f55a4df523b3ef91a4505050565b600060d35447612bf59190614507565b73ffffffffffffffffffffffffffffffffffffffff8316600090815260d4602090815260408083205460d2909252822054929350909161271090612c3d9061ffff16856142ad565b612c4791906142ea565b612c519190614296565b905080612cba576040517f08c379a000000000000000000000000000000000000000000000000000000000815260206004820152601a60248201527f4163636f756e74206973206e6f7420647565207061796d656e740000000000006044820152606401610937565b73ffffffffffffffffffffffffffffffffffffffff8316600090815260d4602052604081208054839290612cef908490614507565b925050819055508060d36000828254612d089190614507565b90915550610af19050838261352f565b6000612d238261127a565b9050612d30600083612182565b73ffffffffffffffffffffffffffffffffffffffff81166000908152606860205260408120805460019290612d66908490614296565b909155505060008281526067602052604080822080547fffffffffffffffffffffffff00000000000000000000000000000000000000001690555183919073ffffffffffffffffffffffffffffffffffffffff8416907fddf252ad1be2c89b69c2b068fc378daa952ba7f163c4a11628f55a4df523b3ef908390a45050565b6097805473ffffffffffffffffffffffffffffffffffffffff8381167fffffffffffffffffffffffff0000000000000000000000000000000000000000831681179093556040519116919082907f8be0079c531659141344cd1fd0a4f28419497f9722a3daafe3b4186f6b6457e090600090a35050565b8173ffffffffffffffffffffffffffffffffffffffff168373ffffffffffffffffffffffffffffffffffffffff161415612ef2576040517f08c379a000000000000000000000000000000000000000000000000000000000815260206004820152601960248201527f4552433732313a20617070726f766520746f2063616c6c6572000000000000006044820152606401610937565b73ffffffffffffffffffffffffffffffffffffffff8381166000818152606a602090815260408083209487168084529482529182902080547fffffffffffffffffffffffffffffffffffffffffffffffffffffffffffffff001686151590811790915591519182527f17307eab39ab6107e8899845ad3d59bd9653f200f220920489ca2b5937696c31910160405180910390a3505050565b612f9584848461297e565b612fa184848484613689565b611b12576040517f08c379a000000000000000000000000000000000000000000000000000000000815260206004820152603260248201527f4552433732313a207472616e7366657220746f206e6f6e20455243373231526560448201527f63656976657220696d706c656d656e74657200000000000000000000000000006064820152608401610937565b73ffffffffffffffffffffffffffffffffffffffff82166130aa576040517f08c379a000000000000000000000000000000000000000000000000000000000815260206004820181905260248201527f4552433732313a206d696e7420746f20746865207a65726f20616464726573736044820152606401610937565b60008181526067602052604090205473ffffffffffffffffffffffffffffffffffffffff1615613136576040517f08c379a000000000000000000000000000000000000000000000000000000000815260206004820152601c60248201527f4552433732313a20746f6b656e20616c7265616479206d696e746564000000006044820152606401610937565b73ffffffffffffffffffffffffffffffffffffffff8216600090815260686020526040812080546001929061316c908490614507565b909155505060008181526067602052604080822080547fffffffffffffffffffffffff00000000000000000000000000000000000000001673ffffffffffffffffffffffffffffffffffffffff861690811790915590518392907fddf252ad1be2c89b69c2b068fc378daa952ba7f163c4a11628f55a4df523b3ef908290a45050565b600054610100900460ff1680613208575060005460ff16155b613294576040517f08c379a000000000000000000000000000000000000000000000000000000000815260206004820152602e60248201527f496e697469616c697a61626c653a20636f6e747261637420697320616c72656160448201527f647920696e697469616c697a65640000000000000000000000000000000000006064820152608401610937565b600054610100900460ff1615801561259f57600080547fffffffffffffffffffffffffffffffffffffffffffffffffffffffffffff000016610101179055801561121f57600080547fffffffffffffffffffffffffffffffffffffffffffffffffffffffffffff00ff16905550565b600054610100900460ff168061331c575060005460ff16155b6133a8576040517f08c379a000000000000000000000000000000000000000000000000000000000815260206004820152602e60248201527f496e697469616c697a61626c653a20636f6e747261637420697320616c72656160448201527f647920696e697469616c697a65640000000000000000000000000000000000006064820152608401610937565b600054610100900460ff161580156133e757600080547fffffffffffffffffffffffffffffffffffffffffffffffffffffffffffff0000166101011790555b82516133fa906065906020860190613879565b50815161340e906066906020850190613879565b508015610af157600080547fffffffffffffffffffffffffffffffffffffffffffffffffffffffffffff00ff169055505050565b600054610100900460ff168061345b575060005460ff16155b6134e7576040517f08c379a000000000000000000000000000000000000000000000000000000000815260206004820152602e60248201527f496e697469616c697a61626c653a20636f6e747261637420697320616c72656160448201527f647920696e697469616c697a65640000000000000000000000000000000000006064820152608401610937565b600054610100900460ff1615801561352657600080547fffffffffffffffffffffffffffffffffffffffffffffffffffffffffffff0000166101011790555b61259f33612de5565b80471015613599576040517f08c379a000000000000000000000000000000000000000000000000000000000815260206004820152601d60248201527f416464726573733a20696e73756666696369656e742062616c616e63650000006044820152606401610937565b60008273ffffffffffffffffffffffffffffffffffffffff168260405160006040518083038185875af1925050503d80600081146135f3576040519150601f19603f3d011682016040523d82523d6000602084013e6135f8565b606091505b5050905080610af1576040517f08c379a000000000000000000000000000000000000000000000000000000000815260206004820152603a60248201527f416464726573733a20756e61626c6520746f2073656e642076616c75652c207260448201527f6563697069656e74206d617920686176652072657665727465640000000000006064820152608401610937565b600073ffffffffffffffffffffffffffffffffffffffff84163b1561386e576040517f150b7a0200000000000000000000000000000000000000000000000000000000815273ffffffffffffffffffffffffffffffffffffffff85169063150b7a029061370090339089908890889060040161451f565b6020604051808303816000875af1925050508015613759575060408051601f3d9081017fffffffffffffffffffffffffffffffffffffffffffffffffffffffffffffffe01682019092526137569181019061455e565b60015b613823573d808015613787576040519150601f19603f3d011682016040523d82523d6000602084013e61378c565b606091505b50805161381b576040517f08c379a000000000000000000000000000000000000000000000000000000000815260206004820152603260248201527f4552433732313a207472616e7366657220746f206e6f6e20455243373231526560448201527f63656976657220696d706c656d656e74657200000000000000000000000000006064820152608401610937565b805181602001fd5b7fffffffff00000000000000000000000000000000000000000000000000000000167f150b7a0200000000000000000000000000000000000000000000000000000000149050612976565b506001949350505050565b82805461388590614126565b90600052602060002090601f0160209004810192826138a757600085556138ed565b82601f106138c057805160ff19168380011785556138ed565b828001600101855582156138ed579182015b828111156138ed5782518255916020019190600101906138d2565b506138f99291506138fd565b5090565b5b808211156138f957600081556001016138fe565b7fffffffff000000000000000000000000000000000000000000000000000000008116811461121f57600080fd5b60006020828403121561395257600080fd5b813561395d81613912565b9392505050565b60005b8381101561397f578181015183820152602001613967565b83811115611b125750506000910152565b600081518084526139a8816020860160208601613964565b601f017fffffffffffffffffffffffffffffffffffffffffffffffffffffffffffffffe0169290920160200192915050565b60208152600061395d6020830184613990565b6000602082840312156139ff57600080fd5b5035919050565b73ffffffffffffffffffffffffffffffffffffffff8116811461121f57600080fd5b8035613a3381613a06565b919050565b60008060408385031215613a4b57600080fd5b8235613a5681613a06565b946020939093013593505050565b7f4e487b7100000000000000000000000000000000000000000000000000000000600052604160045260246000fd5b6040805190810167ffffffffffffffff81118282101715613ab657613ab6613a64565b60405290565b604051601f82017fffffffffffffffffffffffffffffffffffffffffffffffffffffffffffffffe016810167ffffffffffffffff81118282101715613b0357613b03613a64565b604052919050565b600067ffffffffffffffff821115613b2557613b25613a64565b50601f017fffffffffffffffffffffffffffffffffffffffffffffffffffffffffffffffe01660200190565b6000613b64613b5f84613b0b565b613abc565b9050828152838383011115613b7857600080fd5b828260208301376000602084830101529392505050565b600082601f830112613ba057600080fd5b61395d83833560208501613b51565b803567ffffffffffffffff81168114613a3357600080fd5b803561ffff81168114613a3357600080fd5b600067ffffffffffffffff821115613bf357613bf3613a64565b5060051b60200190565b600082601f830112613c0e57600080fd5b81356020613c1e613b5f83613bd9565b82815260069290921b84018101918181019086841115613c3d57600080fd5b8286015b84811015613c8c5760408189031215613c5a5760008081fd5b613c62613a93565b8135613c6d81613a06565b8152613c7a828601613bc7565b81860152835291830191604001613c41565b509695505050505050565b6000806000806000806000806000806101408b8d031215613cb757600080fd5b613cc08b613a28565b995060208b013567ffffffffffffffff80821115613cdd57600080fd5b613ce98e838f01613b8f565b9a5060408d0135915080821115613cff57600080fd5b613d0b8e838f01613b8f565b995060608d0135915080821115613d2157600080fd5b613d2d8e838f01613b8f565b985060808d0135915080821115613d4357600080fd5b613d4f8e838f01613b8f565b975060a08d0135965060c08d0135915080821115613d6c57600080fd5b613d788e838f01613b8f565b9550613d8660e08e01613baf565b9450613d956101008e01613bc7565b93506101208d0135915080821115613dac57600080fd5b50613db98d828e01613bfd565b9150509295989b9194979a5092959850565b600080600060608486031215613de057600080fd5b8335613deb81613a06565b92506020840135613dfb81613a06565b929592945050506040919091013590565b60008060408385031215613e1f57600080fd5b50508035926020909101359150565b60006020808385031215613e4157600080fd5b823567ffffffffffffffff811115613e5857600080fd5b8301601f81018513613e6957600080fd5b8035613e77613b5f82613bd9565b81815260069190911b82018301908381019087831115613e9657600080fd5b928401925b82841015613eea5760408489031215613eb45760008081fd5b613ebc613a93565b8435613ec781613a06565b8152613ed4858701613bc7565b8187015282526040939093019290840190613e9b565b979650505050505050565b600060208284031215613f0757600080fd5b813561395d81613a06565b606081526000613f256060830186613990565b8460208401528281036040840152613f3d8185613990565b9695505050505050565b60008060408385031215613f5a57600080fd5b8235613f6581613a06565b915060208301358015158114613f7a57600080fd5b809150509250929050565b60008060008060808587031215613f9b57600080fd5b8435613fa681613a06565b93506020850135613fb681613a06565b925060408501359150606085013567ffffffffffffffff811115613fd957600080fd5b8501601f81018713613fea57600080fd5b613ff987823560208401613b51565b91505092959194509250565b6000602080838503121561401857600080fd5b823567ffffffffffffffff81111561402f57600080fd5b8301601f8101851361404057600080fd5b803561404e613b5f82613bd9565b81815260059190911b8201830190838101908783111561406d57600080fd5b928401925b82841015613eea57833561408581613a06565b82529284019290840190614072565b600080604083850312156140a757600080fd5b82356140b281613a06565b91506020830135613f7a81613a06565b600080604083850312156140d557600080fd5b823567ffffffffffffffff808211156140ed57600080fd5b6140f986838701613b8f565b9350602085013591508082111561410f57600080fd5b5061411c85828601613b8f565b9150509250929050565b600181811c9082168061413a57607f821691505b60208210811415614174577f4e487b7100000000000000000000000000000000000000000000000000000000600052602260045260246000fd5b50919050565b7f4e487b7100000000000000000000000000000000000000000000000000000000600052603260045260246000fd5b7f4e487b7100000000000000000000000000000000000000000000000000000000600052601160045260246000fd5b600061ffff8216806141ec576141ec6141a9565b7fffffffffffffffffffffffffffffffffffffffffffffffffffffffffffffffff0192915050565b600061ffff808316818516808303821115614231576142316141a9565b01949350505050565b60007fffffffffffffffffffffffffffffffffffffffffffffffffffffffffffffffff82141561426c5761426c6141a9565b5060010190565b600061ffff8381169083168181101561428e5761428e6141a9565b039392505050565b6000828210156142a8576142a86141a9565b500390565b6000817fffffffffffffffffffffffffffffffffffffffffffffffffffffffffffffffff04831182151516156142e5576142e56141a9565b500290565b600082614320577f4e487b7100000000000000000000000000000000000000000000000000000000600052601260045260246000fd5b500490565b600067ffffffffffffffff808316818516808303821115614231576142316141a9565b8054600090600181811c908083168061436257607f831692505b602080841082141561439d577f4e487b7100000000000000000000000000000000000000000000000000000000600052602260045260246000fd5b838852602088018280156143b857600181146143e757614412565b7fffffffffffffffffffffffffffffffffffffffffffffffffffffffffffffff00871682528282019750614412565b60008981526020902060005b8781101561440c578154848201529086019084016143f3565b83019850505b5050505050505092915050565b60c08152600061443260c0830189613990565b82810360208401526144448189614348565b905082810360408401526144588188614348565b9050828103606084015261446c8187614348565b91505083608083015267ffffffffffffffff831660a0830152979650505050505050565b6000602082840312156144a257600080fd5b815167ffffffffffffffff8111156144b957600080fd5b8201601f810184136144ca57600080fd5b80516144d8613b5f82613b0b565b8181528560208385010111156144ed57600080fd5b6144fe826020830160208601613964565b95945050505050565b6000821982111561451a5761451a6141a9565b500190565b600073ffffffffffffffffffffffffffffffffffffffff808716835280861660208401525083604083015260806060830152613f3d6080830184613990565b60006020828403121561457057600080fd5b815161395d8161391256fea2646970667358221220e5cf0be621946b69422f39f64821ccd9b51e21d13a191c3d61853b32baf54c4764736f6c634300080a0033",
  "devdoc": {
    "kind": "dev",
    "methods": {
      "approve(address,uint256)": {
        "details": "See {IERC721-approve}."
      },
      "balanceOf(address)": {
        "details": "See {IERC721-balanceOf}."
      },
      "burn(uint256)": {
        "params": {
          "tokenId": "token edition identifier to burn"
        }
      },
      "getApproved(uint256)": {
        "details": "See {IERC721-getApproved}."
      },
      "getURI()": {
        "returns": {
          "_0": "contentUrl, contentHash"
        }
      },
      "initialize(address,string,string,string,string,bytes32,string,uint64,uint16,(address,uint16)[])": {
        "params": {
          "_contentHash": "SHA256 of the token editions content in bytes32 format (0xHASH)",
          "_contentUrl": "content URL of the token editions",
          "_description": "description of token editions",
          "_name": "name of editions, used in the title as \"$name $tokenId/$size\"",
          "_owner": "can authorize, mint, gets royalties and a dividend of sales, can update the content URL.",
          "_royalties": "perpetual royalties paid to the creator upon token selling",
          "_shares": "shares in bps destined to the shareholders (one per each shareholder)",
          "_size": "number of NFTs that can be minted from this contract: set to 0 for unbound",
          "_symbol": "symbol of the tokens minted by this contract",
          "_thumbnailUrl": "optional token editions content thumbnail URL, for animated content only"
        }
      },
      "isApprovedForAll(address,address)": {
        "details": "See {IERC721-isApprovedForAll}."
      },
      "mintAndTransfer(address[])": {
        "params": {
          "recipients": "list of addresses to send the newly minted tokens to"
        }
      },
      "name()": {
        "details": "See {IERC721Metadata-name}."
      },
      "ownerOf(uint256)": {
        "details": "See {IERC721-ownerOf}."
      },
      "renounceOwnership()": {
        "details": "Leaves the contract without owner. It will not be possible to call `onlyOwner` functions anymore. Can only be called by the current owner. NOTE: Renouncing ownership will leave the contract without an owner, thereby removing any functionality that is only available to the owner."
      },
      "royaltyInfo(uint256,uint256)": {
        "params": {
          "_value": "the sale price for this token"
        }
      },
      "safeTransferFrom(address,address,uint256)": {
        "details": "See {IERC721-safeTransferFrom}."
      },
      "safeTransferFrom(address,address,uint256,bytes)": {
        "details": "See {IERC721-safeTransferFrom}."
      },
      "setApprovalForAll(address,bool)": {
        "details": "See {IERC721-setApprovalForAll}."
      },
      "setApprovedMinters((address,uint16)[])": {
        "params": {
          "allowances": "tuples of (address, uint16) describing how many tokens an address is allowed to mint, 0 disables minting"
        }
      },
      "setPrice(uint256)": {
        "params": {
          "_wei": "if sale price is 0, no sale is allowed, otherwise the provided amount of WEI is needed to start the sale."
        }
      },
      "symbol()": {
        "details": "See {IERC721Metadata-symbol}."
      },
      "tokenURI(uint256)": {
        "params": {
          "tokenId": "token id to get uri for"
        },
        "returns": {
          "_0": "base64-encoded json metadata object"
        }
      },
      "transferFrom(address,address,uint256)": {
        "details": "See {IERC721-transferFrom}."
      },
      "transferOwnership(address)": {
        "details": "Transfers ownership of the contract to a new account (`newOwner`). Can only be called by the current owner."
      }
    },
    "version": 1
  },
  "userdoc": {
    "kind": "user",
    "methods": {
      "burn(uint256)": {
        "notice": "User burn function for token id. "
      },
      "getURI()": {
        "notice": "Get URIs and hash for edition NFT"
      },
      "initialize(address,string,string,string,string,bytes32,string,uint64,uint16,(address,uint16)[])": {
        "notice": "Creates a new edition and sets the only allowed minter to the address that creates/owns the edition: this can be re-assigned or updated later. "
      },
      "mint()": {
        "notice": "If caller is listed as an allowed minter, mints one NFT for him."
      },
      "mintAndTransfer(address[])": {
        "notice": "Mints multiple tokens, one for each of the given list of addresses. Only the edition owner can use this operation and it is intended fo partial giveaways. "
      },
      "mintable()": {
        "notice": "Returns the number of tokens still available for minting (uint64 when open edition)"
      },
      "owner()": {
        "notice": "Returns the owner of the collection of editions."
      },
      "purchase()": {
        "notice": "Basic ETH-based sales operation, performed at the given set price. This operation is open to everyone as soon as the salePrice is set to a non-zero value."
      },
      "royaltyInfo(uint256,uint256)": {
        "notice": "ERC2981 - Gets royalty information for token"
      },
      "setApprovedMinters((address,uint16)[])": {
        "notice": "Allows the edition owner to set the amount of tokens (max 65535) an address is allowed to mint.  If the ZeroAddress (address(0x0)) is set as a minter with an allowance greater than 0, anyone will be allowed  to mint any amount of tokens, similarly to setApprovalForAll in the ERC721 spec. If the allowed amount is set to 0 then the address will NOT be allowed to mint. "
      },
      "setPrice(uint256)": {
        "notice": "This operation sets the sale price, thus allowing anyone to acquire a token from this edition at the sale price via the purchase operation. Setting the sale price to 0 prevents purchase of the tokens which is then allowed only to permitted addresses. "
      },
      "shake()": {
        "notice": "This operation transfers all ETHs from the contract balance to the owner and shareholders."
      },
      "tokenURI(uint256)": {
        "notice": "Get URI for given token id "
      },
      "totalSupply()": {
        "notice": "Returns the number of tokens minted so far "
      },
      "updateEditionsURLs(string,string)": {
        "notice": "Allows for updates of edition urls by the owner of the edition. Only URLs can be updated (data-uris are supported), hashes cannot be updated."
      }
    },
    "notice": "This contract allows dynamic NFT minting.  Operations allow for selling publicly, partial or total giveaways, direct giveaways and rewardings.",
    "version": 1
  },
  "storageLayout": {
    "storage": [
      {
        "astId": 703,
        "contract": "contracts/MintableEditions.sol:MintableEditions",
        "label": "_initialized",
        "offset": 0,
        "slot": "0",
        "type": "t_bool"
      },
      {
        "astId": 706,
        "contract": "contracts/MintableEditions.sol:MintableEditions",
        "label": "_initializing",
        "offset": 1,
        "slot": "0",
        "type": "t_bool"
      },
      {
        "astId": 2355,
        "contract": "contracts/MintableEditions.sol:MintableEditions",
        "label": "__gap",
        "offset": 0,
        "slot": "1",
        "type": "t_array(t_uint256)50_storage"
      },
      {
        "astId": 2678,
        "contract": "contracts/MintableEditions.sol:MintableEditions",
        "label": "__gap",
        "offset": 0,
        "slot": "51",
        "type": "t_array(t_uint256)50_storage"
      },
      {
        "astId": 1074,
        "contract": "contracts/MintableEditions.sol:MintableEditions",
        "label": "_name",
        "offset": 0,
        "slot": "101",
        "type": "t_string_storage"
      },
      {
        "astId": 1076,
        "contract": "contracts/MintableEditions.sol:MintableEditions",
        "label": "_symbol",
        "offset": 0,
        "slot": "102",
        "type": "t_string_storage"
      },
      {
        "astId": 1080,
        "contract": "contracts/MintableEditions.sol:MintableEditions",
        "label": "_owners",
        "offset": 0,
        "slot": "103",
        "type": "t_mapping(t_uint256,t_address)"
      },
      {
        "astId": 1084,
        "contract": "contracts/MintableEditions.sol:MintableEditions",
        "label": "_balances",
        "offset": 0,
        "slot": "104",
        "type": "t_mapping(t_address,t_uint256)"
      },
      {
        "astId": 1088,
        "contract": "contracts/MintableEditions.sol:MintableEditions",
        "label": "_tokenApprovals",
        "offset": 0,
        "slot": "105",
        "type": "t_mapping(t_uint256,t_address)"
      },
      {
        "astId": 1094,
        "contract": "contracts/MintableEditions.sol:MintableEditions",
        "label": "_operatorApprovals",
        "offset": 0,
        "slot": "106",
        "type": "t_mapping(t_address,t_mapping(t_address,t_bool))"
      },
      {
        "astId": 1905,
        "contract": "contracts/MintableEditions.sol:MintableEditions",
        "label": "__gap",
        "offset": 0,
        "slot": "107",
        "type": "t_array(t_uint256)44_storage"
      },
      {
        "astId": 10,
        "contract": "contracts/MintableEditions.sol:MintableEditions",
        "label": "_owner",
        "offset": 0,
        "slot": "151",
        "type": "t_address"
      },
      {
        "astId": 124,
        "contract": "contracts/MintableEditions.sol:MintableEditions",
        "label": "__gap",
        "offset": 0,
        "slot": "152",
        "type": "t_array(t_uint256)49_storage"
      },
      {
        "astId": 3619,
        "contract": "contracts/MintableEditions.sol:MintableEditions",
        "label": "counter",
        "offset": 0,
        "slot": "201",
        "type": "t_struct(Counter)2362_storage"
      },
      {
        "astId": 3621,
        "contract": "contracts/MintableEditions.sol:MintableEditions",
        "label": "description",
        "offset": 0,
        "slot": "202",
        "type": "t_string_storage"
      },
      {
        "astId": 3623,
        "contract": "contracts/MintableEditions.sol:MintableEditions",
        "label": "contentUrl",
        "offset": 0,
        "slot": "203",
        "type": "t_string_storage"
      },
      {
        "astId": 3625,
        "contract": "contracts/MintableEditions.sol:MintableEditions",
        "label": "contentHash",
        "offset": 0,
        "slot": "204",
        "type": "t_bytes32"
      },
      {
        "astId": 3627,
        "contract": "contracts/MintableEditions.sol:MintableEditions",
        "label": "thumbnailUrl",
        "offset": 0,
        "slot": "205",
        "type": "t_string_storage"
      },
      {
        "astId": 3629,
        "contract": "contracts/MintableEditions.sol:MintableEditions",
        "label": "size",
        "offset": 0,
        "slot": "206",
        "type": "t_uint64"
      },
      {
        "astId": 3631,
        "contract": "contracts/MintableEditions.sol:MintableEditions",
        "label": "royalties",
        "offset": 8,
        "slot": "206",
        "type": "t_uint16"
      },
      {
        "astId": 3638,
        "contract": "contracts/MintableEditions.sol:MintableEditions",
        "label": "allowedMinters",
        "offset": 0,
        "slot": "207",
        "type": "t_mapping(t_address,t_uint16)"
      },
      {
        "astId": 3640,
        "contract": "contracts/MintableEditions.sol:MintableEditions",
        "label": "price",
        "offset": 0,
        "slot": "208",
        "type": "t_uint256"
      },
      {
        "astId": 3643,
        "contract": "contracts/MintableEditions.sol:MintableEditions",
        "label": "shareholders",
        "offset": 0,
        "slot": "209",
        "type": "t_array(t_address)dyn_storage"
      },
      {
        "astId": 3647,
        "contract": "contracts/MintableEditions.sol:MintableEditions",
        "label": "shares",
        "offset": 0,
        "slot": "210",
        "type": "t_mapping(t_address,t_uint16)"
      },
      {
        "astId": 3649,
        "contract": "contracts/MintableEditions.sol:MintableEditions",
        "label": "withdrawn",
        "offset": 0,
        "slot": "211",
        "type": "t_uint256"
      },
      {
        "astId": 3653,
        "contract": "contracts/MintableEditions.sol:MintableEditions",
        "label": "witdrawals",
        "offset": 0,
        "slot": "212",
        "type": "t_mapping(t_address,t_uint256)"
      }
    ],
    "types": {
      "t_address": {
        "encoding": "inplace",
        "label": "address",
        "numberOfBytes": "20"
      },
      "t_array(t_address)dyn_storage": {
        "base": "t_address",
        "encoding": "dynamic_array",
        "label": "address[]",
        "numberOfBytes": "32"
      },
      "t_array(t_uint256)44_storage": {
        "base": "t_uint256",
        "encoding": "inplace",
        "label": "uint256[44]",
        "numberOfBytes": "1408"
      },
      "t_array(t_uint256)49_storage": {
        "base": "t_uint256",
        "encoding": "inplace",
        "label": "uint256[49]",
        "numberOfBytes": "1568"
      },
      "t_array(t_uint256)50_storage": {
        "base": "t_uint256",
        "encoding": "inplace",
        "label": "uint256[50]",
        "numberOfBytes": "1600"
      },
      "t_bool": {
        "encoding": "inplace",
        "label": "bool",
        "numberOfBytes": "1"
      },
      "t_bytes32": {
        "encoding": "inplace",
        "label": "bytes32",
        "numberOfBytes": "32"
      },
      "t_mapping(t_address,t_bool)": {
        "encoding": "mapping",
        "key": "t_address",
        "label": "mapping(address => bool)",
        "numberOfBytes": "32",
        "value": "t_bool"
      },
      "t_mapping(t_address,t_mapping(t_address,t_bool))": {
        "encoding": "mapping",
        "key": "t_address",
        "label": "mapping(address => mapping(address => bool))",
        "numberOfBytes": "32",
        "value": "t_mapping(t_address,t_bool)"
      },
      "t_mapping(t_address,t_uint16)": {
        "encoding": "mapping",
        "key": "t_address",
        "label": "mapping(address => uint16)",
        "numberOfBytes": "32",
        "value": "t_uint16"
      },
      "t_mapping(t_address,t_uint256)": {
        "encoding": "mapping",
        "key": "t_address",
        "label": "mapping(address => uint256)",
        "numberOfBytes": "32",
        "value": "t_uint256"
      },
      "t_mapping(t_uint256,t_address)": {
        "encoding": "mapping",
        "key": "t_uint256",
        "label": "mapping(uint256 => address)",
        "numberOfBytes": "32",
        "value": "t_address"
      },
      "t_string_storage": {
        "encoding": "bytes",
        "label": "string",
        "numberOfBytes": "32"
      },
      "t_struct(Counter)2362_storage": {
        "encoding": "inplace",
        "label": "struct CountersUpgradeable.Counter",
        "members": [
          {
            "astId": 2361,
            "contract": "contracts/MintableEditions.sol:MintableEditions",
            "label": "_value",
            "offset": 0,
            "slot": "0",
            "type": "t_uint256"
          }
        ],
        "numberOfBytes": "32"
      },
      "t_uint16": {
        "encoding": "inplace",
        "label": "uint16",
        "numberOfBytes": "2"
      },
      "t_uint256": {
        "encoding": "inplace",
        "label": "uint256",
        "numberOfBytes": "32"
      },
      "t_uint64": {
        "encoding": "inplace",
        "label": "uint64",
        "numberOfBytes": "8"
      }
    }
  }
}