{
  "address": "0xCf7Ed3AccA5a467e9e704C703E8D87F634fB0Fc9",
  "abi": [
    {
      "inputs": [],
      "stateMutability": "nonpayable",
      "type": "constructor"
    },
    {
      "inputs": [
        {
          "internalType": "address[]",
          "name": "_payees",
          "type": "address[]"
        },
        {
          "internalType": "uint256[]",
          "name": "_shares",
          "type": "uint256[]"
        }
      ],
      "name": "initialize",
      "outputs": [],
      "stateMutability": "nonpayable",
      "type": "function"
    },
    {
      "stateMutability": "payable",
      "type": "receive"
    }
  ],
  "transactionHash": "0x0556a120a02090df08fa8d1c4ff18d2e4afe4b413c067ab4b3b4ddc571dd0ed6",
  "args": [],
  "solcInputHash": "0c0658d873e75a15781f23104693522d",
  "bytecode": "0x608060405234801561001057600080fd5b50600054610100900460ff168061002a575060005460ff16155b6100915760405162461bcd60e51b815260206004820152602e60248201527f496e697469616c697a61626c653a20636f6e747261637420697320616c72656160448201526d191e481a5b9a5d1a585b1a5e995960921b606482015260840160405180910390fd5b600054610100900460ff161580156100b3576000805461ffff19166101011790555b80156100c5576000805461ff00191690555b50610ad3806100d56000396000f3fe6080604052600436106100225760003560e01c80637fbbe46f146100f757600080fd5b366100f2574760005b6001548110156100ee57600061271060026000600185815481106100515761005161078d565b600091825260208083209091015473ffffffffffffffffffffffffffffffffffffffff1683528201929092526040019020546100919061ffff16856107eb565b61009b9190610828565b90506100db600183815481106100b3576100b361078d565b60009182526020909120015473ffffffffffffffffffffffffffffffffffffffff1682610119565b50806100e681610863565b91505061002b565b5050005b600080fd5b34801561010357600080fd5b506101176101123660046109a9565b61027d565b005b80471015610188576040517f08c379a000000000000000000000000000000000000000000000000000000000815260206004820152601d60248201527f416464726573733a20696e73756666696369656e742062616c616e636500000060448201526064015b60405180910390fd5b60008273ffffffffffffffffffffffffffffffffffffffff168260405160006040518083038185875af1925050503d80600081146101e2576040519150601f19603f3d011682016040523d82523d6000602084013e6101e7565b606091505b5050905080610278576040517f08c379a000000000000000000000000000000000000000000000000000000000815260206004820152603a60248201527f416464726573733a20756e61626c6520746f2073656e642076616c75652c207260448201527f6563697069656e74206d61792068617665207265766572746564000000000000606482015260840161017f565b505050565b600054610100900460ff1680610296575060005460ff16155b610322576040517f08c379a000000000000000000000000000000000000000000000000000000000815260206004820152602e60248201527f496e697469616c697a61626c653a20636f6e747261637420697320616c72656160448201527f647920696e697469616c697a6564000000000000000000000000000000000000606482015260840161017f565b600054610100900460ff1615801561036157600080547fffffffffffffffffffffffffffffffffffffffffffffffffffffffffffff0000166101011790555b81518351146103cc576040517f08c379a000000000000000000000000000000000000000000000000000000000815260206004820181905260248201527f53706c69747465723a20696e70757473206c656e677468206d69736d61746368604482015260640161017f565b6000835111610437576040517f08c379a000000000000000000000000000000000000000000000000000000000815260206004820152601360248201527f53706c69747465723a206e6f2070617965657300000000000000000000000000604482015260640161017f565b6000805b84518110156104b9576104808582815181106104595761045961078d565b60200260200101518583815181106104735761047361078d565b6020026020010151610559565b8381815181106104925761049261078d565b6020026020010151826104a59190610a85565b9150806104b181610863565b91505061043b565b508061271014610525576040517f08c379a000000000000000000000000000000000000000000000000000000000815260206004820181905260248201527f53686172657320646f6e27742073756d20757020746f20313030303020706273604482015260640161017f565b50801561027857600080547fffffffffffffffffffffffffffffffffffffffffffffffffffffffffffff00ff169055505050565b73ffffffffffffffffffffffffffffffffffffffff82166105d6576040517f08c379a000000000000000000000000000000000000000000000000000000000815260206004820181905260248201527f53706c69747465723a206163636f756e74206973203078302061646472657373604482015260640161017f565b6000811180156105e7575061271081105b61064d576040517f08c379a000000000000000000000000000000000000000000000000000000000815260206004820152601860248201527f53706c69747465723a20696e76616c6964207368617265730000000000000000604482015260640161017f565b73ffffffffffffffffffffffffffffffffffffffff821660009081526002602052604090205461ffff16156106de576040517f08c379a000000000000000000000000000000000000000000000000000000000815260206004820152601c60248201527f53706c69747465723a206163636f756e74206475706c69636174656400000000604482015260640161017f565b600180548082019091557fb10e2d527612073b26eecdfd717e6a320cf44b4afac2b0732d9fcbe2b7fa0cf60180547fffffffffffffffffffffffff00000000000000000000000000000000000000001673ffffffffffffffffffffffffffffffffffffffff93909316928317905560009182526002602052604090912080547fffffffffffffffffffffffffffffffffffffffffffffffffffffffffffff00001661ffff909216919091179055565b7f4e487b7100000000000000000000000000000000000000000000000000000000600052603260045260246000fd5b7f4e487b7100000000000000000000000000000000000000000000000000000000600052601160045260246000fd5b6000817fffffffffffffffffffffffffffffffffffffffffffffffffffffffffffffffff0483118215151615610823576108236107bc565b500290565b60008261085e577f4e487b7100000000000000000000000000000000000000000000000000000000600052601260045260246000fd5b500490565b60007fffffffffffffffffffffffffffffffffffffffffffffffffffffffffffffffff821415610895576108956107bc565b5060010190565b7f4e487b7100000000000000000000000000000000000000000000000000000000600052604160045260246000fd5b604051601f82017fffffffffffffffffffffffffffffffffffffffffffffffffffffffffffffffe016810167ffffffffffffffff811182821017156109125761091261089c565b604052919050565b600067ffffffffffffffff8211156109345761093461089c565b5060051b60200190565b600082601f83011261094f57600080fd5b8135602061096461095f8361091a565b6108cb565b82815260059290921b8401810191818101908684111561098357600080fd5b8286015b8481101561099e5780358352918301918301610987565b509695505050505050565b600080604083850312156109bc57600080fd5b823567ffffffffffffffff808211156109d457600080fd5b818501915085601f8301126109e857600080fd5b813560206109f861095f8361091a565b82815260059290921b84018101918181019089841115610a1757600080fd5b948201945b83861015610a5857853573ffffffffffffffffffffffffffffffffffffffff81168114610a495760008081fd5b82529482019490820190610a1c565b96505086013592505080821115610a6e57600080fd5b50610a7b8582860161093e565b9150509250929050565b60008219821115610a9857610a986107bc565b50019056fea2646970667358221220f35c690a3db18c705cd5a10f8aa4777a30c7d70640991ef2f9b59e57725ef38764736f6c634300080a0033",
  "devdoc": {
    "kind": "dev",
    "methods": {},
    "version": 1
  },
  "userdoc": {
    "kind": "user",
    "methods": {},
    "version": 1
  },
  "storageLayout": {
    "storage": [
      {
        "astId": 2777,
        "contract": "contracts/PushSplitter.sol:PushSplitter",
        "label": "_initialized",
        "offset": 0,
        "slot": "0",
        "type": "t_bool"
      },
      {
        "astId": 2780,
        "contract": "contracts/PushSplitter.sol:PushSplitter",
        "label": "_initializing",
        "offset": 1,
        "slot": "0",
        "type": "t_bool"
      },
      {
        "astId": 4664,
        "contract": "contracts/PushSplitter.sol:PushSplitter",
        "label": "payees",
        "offset": 0,
        "slot": "1",
        "type": "t_array(t_address)dyn_storage"
      },
      {
        "astId": 4668,
        "contract": "contracts/PushSplitter.sol:PushSplitter",
        "label": "shares",
        "offset": 0,
        "slot": "2",
        "type": "t_mapping(t_address,t_uint16)"
      }
    ],
    "types": {
      "t_address": {
        "encoding": "inplace",
        "label": "address",
        "numberOfBytes": "20"
      },
      "t_array(t_address)dyn_storage": {
        "base": "t_address",
        "encoding": "dynamic_array",
        "label": "address[]",
        "numberOfBytes": "32"
      },
      "t_bool": {
        "encoding": "inplace",
        "label": "bool",
        "numberOfBytes": "1"
      },
      "t_mapping(t_address,t_uint16)": {
        "encoding": "mapping",
        "key": "t_address",
        "label": "mapping(address => uint16)",
        "numberOfBytes": "32",
        "value": "t_uint16"
      },
      "t_uint16": {
        "encoding": "inplace",
        "label": "uint16",
        "numberOfBytes": "2"
      }
    }
  }
}