{
  "address": "0x3e9434606A403D8479539c5DCf53E660f0808168",
  "abi": [
    {
      "inputs": [
        {
          "internalType": "bytes",
          "name": "unencoded",
          "type": "bytes"
        }
      ],
      "name": "base64Encode",
      "outputs": [
        {
          "internalType": "string",
          "name": "",
          "type": "string"
        }
      ],
      "stateMutability": "pure",
      "type": "function"
    },
    {
      "inputs": [
        {
          "internalType": "string",
          "name": "name",
          "type": "string"
        },
        {
          "internalType": "string",
          "name": "description",
          "type": "string"
        },
        {
          "internalType": "string",
          "name": "mediaData",
          "type": "string"
        },
        {
          "internalType": "uint256",
          "name": "tokenOfEdition",
          "type": "uint256"
        },
        {
          "internalType": "uint256",
          "name": "size",
          "type": "uint256"
        }
      ],
      "name": "createMetadata",
      "outputs": [
        {
          "internalType": "bytes",
          "name": "",
          "type": "bytes"
        }
      ],
      "stateMutability": "pure",
      "type": "function"
    },
    {
      "inputs": [
        {
          "internalType": "string",
          "name": "name",
          "type": "string"
        },
        {
          "internalType": "string",
          "name": "description",
          "type": "string"
        },
        {
          "internalType": "string",
          "name": "contentUrl",
          "type": "string"
        },
        {
          "internalType": "string",
          "name": "thumbnailUrl",
          "type": "string"
        },
        {
          "internalType": "uint256",
          "name": "tokenOfEdition",
          "type": "uint256"
        },
        {
          "internalType": "uint256",
          "name": "size",
          "type": "uint256"
        }
      ],
      "name": "createTokenURI",
      "outputs": [
        {
          "internalType": "string",
          "name": "",
          "type": "string"
        }
      ],
      "stateMutability": "pure",
      "type": "function"
    },
    {
      "inputs": [
        {
          "internalType": "bytes",
          "name": "json",
          "type": "bytes"
        }
      ],
      "name": "encodeMetadata",
      "outputs": [
        {
          "internalType": "string",
          "name": "",
          "type": "string"
        }
      ],
      "stateMutability": "pure",
      "type": "function"
    },
    {
      "inputs": [
        {
          "internalType": "uint256",
          "name": "value",
          "type": "uint256"
        }
      ],
      "name": "numberToString",
      "outputs": [
        {
          "internalType": "string",
          "name": "",
          "type": "string"
        }
      ],
      "stateMutability": "pure",
      "type": "function"
    },
    {
      "inputs": [
        {
          "internalType": "string",
          "name": "contentUrl",
          "type": "string"
        },
        {
          "internalType": "string",
          "name": "thumbnailUrl",
          "type": "string"
        },
        {
          "internalType": "uint256",
          "name": "tokenOfEdition",
          "type": "uint256"
        }
      ],
      "name": "tokenMediaData",
      "outputs": [
        {
          "internalType": "string",
          "name": "",
          "type": "string"
        }
      ],
      "stateMutability": "pure",
      "type": "function"
    }
  ],
  "transactionHash": "0xcdcab7afc476d4ff7a6f046ee49ea1ad302769428c056362ddc4466292300a2b",
  "args": [],
  "solcInputHash": "428cafc9f551af7203e2717098d53cb8",
  "bytecode": "0x608060405234801561001057600080fd5b50610ef1806100206000396000f3fe608060405234801561001057600080fd5b50600436106100725760003560e01c8063be6ce8b411610050578063be6ce8b4146100c6578063d5fb1b19146100d9578063eb111ab6146100ec57600080fd5b8063170dc6601461007757806329395d7e146100a0578063a50e6a68146100b3575b600080fd5b61008a61008536600461057e565b6100ff565b6040516100979190610611565b60405180910390f35b61008a6100ae3660046106e7565b610110565b61008a6100c1366004610750565b610141565b61008a6100d436600461080f565b610179565b61008a6100e73660046106e7565b6101f5565b61008a6100fa3660046108a9565b610200565b606061010a8261026b565b92915050565b606061011b826101f5565b60405160200161012b9190610932565b6040516020818303038152906040529050919050565b60606000610150868686610200565b905060006101618989848888610179565b905061016c81610110565b9998505050505050505050565b60608082156101ad5761018b836100ff565b60405160200161019b9190610977565b60405160208183030381529060405290505b866101b7856100ff565b8288886101c3896100ff565b8c6040516020016101da97969594939291906109bc565b60405160208183030381529060405291505095945050505050565b606061010a826103a5565b606082516000141561023d5783610216836100ff565b604051602001610227929190610b6e565b6040516020818303038152906040529050610264565b82610247836100ff565b85610251856100ff565b6040516020016102279493929190610c19565b9392505050565b6060816102ab57505060408051808201909152600181527f3000000000000000000000000000000000000000000000000000000000000000602082015290565b8160005b81156102d557806102bf81610d50565b91506102ce9050600a83610db8565b91506102af565b60008167ffffffffffffffff8111156102f0576102f0610624565b6040519080825280601f01601f19166020018201604052801561031a576020820181803683370190505b5090505b841561039d5761032f600183610dcc565b915061033c600a86610de3565b610347906030610df7565b60f81b81838151811061035c5761035c610e0f565b60200101907effffffffffffffffffffffffffffffffffffffffffffffffffffffffffffff1916908160001a905350610396600a86610db8565b945061031e565b949350505050565b60608151600014156103c557505060408051602081019091526000815290565b6000604051806060016040528060408152602001610e7c60409139905060006003845160026103f49190610df7565b6103fe9190610db8565b610409906004610e3e565b90506000610418826020610df7565b67ffffffffffffffff81111561043057610430610624565b6040519080825280601f01601f19166020018201604052801561045a576020820181803683370190505b509050818152600183018586518101602084015b818310156104c6576003830192508251603f8160121c168501518253600182019150603f81600c1c168501518253600182019150603f8160061c168501518253600182019150603f811685015182535060010161046e565b6003895106600181146104e0576002811461052a57610570565b7f3d3d0000000000000000000000000000000000000000000000000000000000007ffffffffffffffffffffffffffffffffffffffffffffffffffffffffffffffffe830152610570565b7f3d000000000000000000000000000000000000000000000000000000000000007fffffffffffffffffffffffffffffffffffffffffffffffffffffffffffffffff8301525b509398975050505050505050565b60006020828403121561059057600080fd5b5035919050565b60005b838110156105b257818101518382015260200161059a565b838111156105c1576000848401525b50505050565b600081518084526105df816020860160208601610597565b601f017fffffffffffffffffffffffffffffffffffffffffffffffffffffffffffffffe0169290920160200192915050565b60208152600061026460208301846105c7565b7f4e487b7100000000000000000000000000000000000000000000000000000000600052604160045260246000fd5b600067ffffffffffffffff8084111561066e5761066e610624565b604051601f85017fffffffffffffffffffffffffffffffffffffffffffffffffffffffffffffffe0908116603f011681019082821181831017156106b4576106b4610624565b816040528093508581528686860111156106cd57600080fd5b858560208301376000602087830101525050509392505050565b6000602082840312156106f957600080fd5b813567ffffffffffffffff81111561071057600080fd5b8201601f8101841361072157600080fd5b61039d84823560208401610653565b600082601f83011261074157600080fd5b61026483833560208501610653565b60008060008060008060c0878903121561076957600080fd5b863567ffffffffffffffff8082111561078157600080fd5b61078d8a838b01610730565b975060208901359150808211156107a357600080fd5b6107af8a838b01610730565b965060408901359150808211156107c557600080fd5b6107d18a838b01610730565b955060608901359150808211156107e757600080fd5b506107f489828a01610730565b9350506080870135915060a087013590509295509295509295565b600080600080600060a0868803121561082757600080fd5b853567ffffffffffffffff8082111561083f57600080fd5b61084b89838a01610730565b9650602088013591508082111561086157600080fd5b61086d89838a01610730565b9550604088013591508082111561088357600080fd5b5061089088828901610730565b9598949750949560608101359550608001359392505050565b6000806000606084860312156108be57600080fd5b833567ffffffffffffffff808211156108d657600080fd5b6108e287838801610730565b945060208601359150808211156108f857600080fd5b5061090586828701610730565b925050604084013590509250925092565b60008151610928818560208601610597565b9290920192915050565b7f646174613a6170706c69636174696f6e2f6a736f6e3b6261736536342c00000081526000825161096a81601d850160208701610597565b91909101601d0192915050565b7f2f000000000000000000000000000000000000000000000000000000000000008152600082516109af816001850160208701610597565b9190910160010192915050565b7f7b226e616d65223a2200000000000000000000000000000000000000000000008152600088516109f4816009850160208d01610597565b7f20000000000000000000000000000000000000000000000000000000000000006009918401918201528851610a3181600a840160208d01610597565b8851910190610a4781600a840160208c01610597565b7f222c226465736372697074696f6e223a22000000000000000000000000000000600a92909101918201528651610a8581601b840160208b01610597565b7f222c220000000000000000000000000000000000000000000000000000000000601b92909101918201528551610ac381601e840160208a01610597565b610b5f610b36610b30610b07610b01601e868801017f70726f70657274696573223a7b226e756d626572223a00000000000000000000815260160190565b8a610916565b7f2c226e616d65223a220000000000000000000000000000000000000000000000815260090190565b87610916565b7f227d7d0000000000000000000000000000000000000000000000000000000000815260030190565b9b9a5050505050505050505050565b7f696d616765223a22000000000000000000000000000000000000000000000000815260008351610ba6816008850160208801610597565b7f3f69643d000000000000000000000000000000000000000000000000000000006008918401918201528351610be381600c840160208801610597565b7f222c220000000000000000000000000000000000000000000000000000000000600c9290910191820152600f01949350505050565b7f696d616765223a22000000000000000000000000000000000000000000000000815260008551610c51816008850160208a01610597565b80830190507f3f69643d000000000000000000000000000000000000000000000000000000008060088301528651610c9081600c850160208b01610597565b7f222c22616e696d6174696f6e5f75726c223a2200000000000000000000000000600c93909101928301528551610cce81601f850160208a01610597565b601f9201918201528351610ce9816023840160208801610597565b7f222c220000000000000000000000000000000000000000000000000000000000602392909101918201526026019695505050505050565b7f4e487b7100000000000000000000000000000000000000000000000000000000600052601160045260246000fd5b60007fffffffffffffffffffffffffffffffffffffffffffffffffffffffffffffffff821415610d8257610d82610d21565b5060010190565b7f4e487b7100000000000000000000000000000000000000000000000000000000600052601260045260246000fd5b600082610dc757610dc7610d89565b500490565b600082821015610dde57610dde610d21565b500390565b600082610df257610df2610d89565b500690565b60008219821115610e0a57610e0a610d21565b500190565b7f4e487b7100000000000000000000000000000000000000000000000000000000600052603260045260246000fd5b6000817fffffffffffffffffffffffffffffffffffffffffffffffffffffffffffffffff0483118215151615610e7657610e76610d21565b50029056fe4142434445464748494a4b4c4d4e4f505152535455565758595a6162636465666768696a6b6c6d6e6f707172737475767778797a303132333435363738392b2fa264697066735822122049dbc126e94e318004307bb4947c8c93f032324de4a0521560d07d365580484164736f6c63430008090033",
  "devdoc": {
    "kind": "dev",
    "methods": {
      "base64Encode(bytes)": {
        "params": {
          "unencoded": "bytes to base64-encode"
        }
      },
      "createMetadata(string,string,string,uint256,uint256)": {
        "params": {
          "description": "Description of NFT in metadata",
          "mediaData": "Data for media to include in json object",
          "name": "Name of NFT in metadata",
          "size": "Size of entire edition to show",
          "tokenOfEdition": "Token ID for specific token"
        }
      },
      "createTokenURI(string,string,string,string,uint256,uint256)": {
        "params": {
          "contentUrl": "URL of content to render",
          "description": "Description of NFT in metadata",
          "name": "Name of NFT in metadata",
          "size": "total count of editions",
          "thumbnailUrl": "optional URL of a thumbnail to render, for animated content only",
          "tokenOfEdition": "unique identifier of a token edition"
        }
      },
      "encodeMetadata(bytes)": {
        "params": {
          "json": "raw json to base64 and turn into a data-uri"
        }
      },
      "numberToString(uint256)": {
        "params": {
          "value": "number to return as a string"
        }
      },
      "tokenMediaData(string,string,uint256)": {
        "params": {
          "contentUrl": "URL of image to render for edition",
          "thumbnailUrl": "index of the content type to render for edition",
          "tokenOfEdition": "token identifier"
        }
      }
    },
    "version": 1
  },
  "userdoc": {
    "kind": "user",
    "methods": {
      "createMetadata(string,string,string,uint256,uint256)": {
        "notice": "Function to create the metadata json string for the nft edition "
      },
      "createTokenURI(string,string,string,string,uint256,uint256)": {
        "notice": "Generates edition metadata from storage information as base64-json blob Combines the media data and metadata "
      },
      "encodeMetadata(bytes)": {
        "notice": "Encodes the argument json bytes into base64-data uri format "
      },
      "numberToString(uint256)": {
        "notice": "Proxy to openzeppelin's toString function"
      },
      "tokenMediaData(string,string,uint256)": {
        "notice": "Generates edition metadata from storage information as base64-json blob Combines the media data and metadata "
      }
    },
    "notice": "Shared NFT logic for rendering metadata associated with editions",
    "version": 1
  },
  "storageLayout": {
    "storage": [],
    "types": null
  }
}