{
  "address": "0xfEc5b5EecEB8Da31E5A5F3f219015467b91D3B08",
  "abi": [
    {
      "inputs": [],
      "stateMutability": "nonpayable",
      "type": "constructor"
    },
    {
      "inputs": [
        {
          "components": [
            {
              "internalType": "address payable",
              "name": "payee",
              "type": "address"
            },
            {
              "internalType": "uint16",
              "name": "bps",
              "type": "uint16"
            }
          ],
          "internalType": "struct ISplitter.Shares[]",
          "name": "shares",
          "type": "tuple[]"
        }
      ],
      "name": "initialize",
      "outputs": [],
      "stateMutability": "nonpayable",
      "type": "function"
    },
    {
      "stateMutability": "payable",
      "type": "receive"
    }
  ],
  "transactionHash": "0xbaa78cd8a6da7d95a95909268f6e8f859b29b7285540e332ca736fadc94f4a68",
  "args": [],
  "solcInputHash": "75277c0311afcfc20af4823b32009c84",
  "bytecode": "0x608060405234801561001057600080fd5b50600054610100900460ff168061002a575060005460ff16155b6100915760405162461bcd60e51b815260206004820152602e60248201527f496e697469616c697a61626c653a20636f6e747261637420697320616c72656160448201526d191e481a5b9a5d1a585b1a5e995960921b606482015260840160405180910390fd5b600054610100900460ff161580156100b3576000805461ffff19166101011790555b80156100c5576000805461ff00191690555b50610a3c806100d56000396000f3fe6080604052600436106100225760003560e01c8063cb88ac16146100f757600080fd5b366100f2574760005b6001548110156100ee576000612710600260006001858154811061005157610051610736565b600091825260208083209091015473ffffffffffffffffffffffffffffffffffffffff1683528201929092526040019020546100919061ffff1685610794565b61009b91906107d1565b90506100db600183815481106100b3576100b3610736565b60009182526020909120015473ffffffffffffffffffffffffffffffffffffffff1682610119565b50806100e68161080c565b91505061002b565b5050005b600080fd5b34801561010357600080fd5b506101176101123660046108ec565b61027d565b005b80471015610188576040517f08c379a000000000000000000000000000000000000000000000000000000000815260206004820152601d60248201527f416464726573733a20696e73756666696369656e742062616c616e636500000060448201526064015b60405180910390fd5b60008273ffffffffffffffffffffffffffffffffffffffff168260405160006040518083038185875af1925050503d80600081146101e2576040519150601f19603f3d011682016040523d82523d6000602084013e6101e7565b606091505b5050905080610278576040517f08c379a000000000000000000000000000000000000000000000000000000000815260206004820152603a60248201527f416464726573733a20756e61626c6520746f2073656e642076616c75652c207260448201527f6563697069656e74206d61792068617665207265766572746564000000000000606482015260840161017f565b505050565b600054610100900460ff1680610296575060005460ff16155b610322576040517f08c379a000000000000000000000000000000000000000000000000000000000815260206004820152602e60248201527f496e697469616c697a61626c653a20636f6e747261637420697320616c72656160448201527f647920696e697469616c697a6564000000000000000000000000000000000000606482015260840161017f565b600054610100900460ff1615801561036157600080547fffffffffffffffffffffffffffffffffffffffffffffffffffffffffffff0000166101011790555b60008251116103cc576040517f08c379a000000000000000000000000000000000000000000000000000000000815260206004820152601360248201527f53706c69747465723a206e6f2070617965657300000000000000000000000000604482015260640161017f565b6000805b8351811015610462576104218482815181106103ee576103ee610736565b60200260200101516000015185838151811061040c5761040c610736565b60200260200101516020015161ffff16610502565b83818151811061043357610433610736565b60200260200101516020015161ffff168261044e91906109ee565b91508061045a8161080c565b9150506103d0565b5080612710146104ce576040517f08c379a000000000000000000000000000000000000000000000000000000000815260206004820181905260248201527f53686172657320646f6e27742073756d20757020746f20313030303020706273604482015260640161017f565b5080156104fe57600080547fffffffffffffffffffffffffffffffffffffffffffffffffffffffffffff00ff1690555b5050565b73ffffffffffffffffffffffffffffffffffffffff821661057f576040517f08c379a000000000000000000000000000000000000000000000000000000000815260206004820181905260248201527f53706c69747465723a206163636f756e74206973203078302061646472657373604482015260640161017f565b600081118015610590575061271081105b6105f6576040517f08c379a000000000000000000000000000000000000000000000000000000000815260206004820152601860248201527f53706c69747465723a20696e76616c6964207368617265730000000000000000604482015260640161017f565b73ffffffffffffffffffffffffffffffffffffffff821660009081526002602052604090205461ffff1615610687576040517f08c379a000000000000000000000000000000000000000000000000000000000815260206004820152601c60248201527f53706c69747465723a206163636f756e74206475706c69636174656400000000604482015260640161017f565b600180548082019091557fb10e2d527612073b26eecdfd717e6a320cf44b4afac2b0732d9fcbe2b7fa0cf60180547fffffffffffffffffffffffff00000000000000000000000000000000000000001673ffffffffffffffffffffffffffffffffffffffff93909316928317905560009182526002602052604090912080547fffffffffffffffffffffffffffffffffffffffffffffffffffffffffffff00001661ffff909216919091179055565b7f4e487b7100000000000000000000000000000000000000000000000000000000600052603260045260246000fd5b7f4e487b7100000000000000000000000000000000000000000000000000000000600052601160045260246000fd5b6000817fffffffffffffffffffffffffffffffffffffffffffffffffffffffffffffffff04831182151516156107cc576107cc610765565b500290565b600082610807577f4e487b7100000000000000000000000000000000000000000000000000000000600052601260045260246000fd5b500490565b60007fffffffffffffffffffffffffffffffffffffffffffffffffffffffffffffffff82141561083e5761083e610765565b5060010190565b7f4e487b7100000000000000000000000000000000000000000000000000000000600052604160045260246000fd5b6040805190810167ffffffffffffffff8111828210171561089757610897610845565b60405290565b604051601f82017fffffffffffffffffffffffffffffffffffffffffffffffffffffffffffffffe016810167ffffffffffffffff811182821017156108e4576108e4610845565b604052919050565b600060208083850312156108ff57600080fd5b823567ffffffffffffffff8082111561091757600080fd5b818501915085601f83011261092b57600080fd5b81358181111561093d5761093d610845565b61094b848260051b0161089d565b818152848101925060069190911b83018401908782111561096b57600080fd5b928401925b818410156109e357604084890312156109895760008081fd5b610991610874565b843573ffffffffffffffffffffffffffffffffffffffff811681146109b65760008081fd5b81528486013561ffff811681146109cd5760008081fd5b8187015283526040939093019291840191610970565b979650505050505050565b60008219821115610a0157610a01610765565b50019056fea26469706673582212206f7e39038940830df9219800968caa5fd58d867a08221584f1777b4386e903d764736f6c63430008090033",
  "devdoc": {
    "kind": "dev",
    "methods": {},
    "version": 1
  },
  "userdoc": {
    "kind": "user",
    "methods": {},
    "version": 1
  },
  "storageLayout": {
    "storage": [
      {
        "astId": 2412,
        "contract": "contracts/PushSplitter.sol:PushSplitter",
        "label": "_initialized",
        "offset": 0,
        "slot": "0",
        "type": "t_bool"
      },
      {
        "astId": 2415,
        "contract": "contracts/PushSplitter.sol:PushSplitter",
        "label": "_initializing",
        "offset": 1,
        "slot": "0",
        "type": "t_bool"
      },
      {
        "astId": 4727,
        "contract": "contracts/PushSplitter.sol:PushSplitter",
        "label": "_payees",
        "offset": 0,
        "slot": "1",
        "type": "t_array(t_address)dyn_storage"
      },
      {
        "astId": 4731,
        "contract": "contracts/PushSplitter.sol:PushSplitter",
        "label": "_shares",
        "offset": 0,
        "slot": "2",
        "type": "t_mapping(t_address,t_uint16)"
      }
    ],
    "types": {
      "t_address": {
        "encoding": "inplace",
        "label": "address",
        "numberOfBytes": "20"
      },
      "t_array(t_address)dyn_storage": {
        "base": "t_address",
        "encoding": "dynamic_array",
        "label": "address[]",
        "numberOfBytes": "32"
      },
      "t_bool": {
        "encoding": "inplace",
        "label": "bool",
        "numberOfBytes": "1"
      },
      "t_mapping(t_address,t_uint16)": {
        "encoding": "mapping",
        "key": "t_address",
        "label": "mapping(address => uint16)",
        "numberOfBytes": "32",
        "value": "t_uint16"
      },
      "t_uint16": {
        "encoding": "inplace",
        "label": "uint16",
        "numberOfBytes": "2"
      }
    }
  }
}