{
  "address": "0x549dca5a6f921662fE2595D543B89bA95649c9D1",
  "abi": [
    {
      "inputs": [],
      "stateMutability": "nonpayable",
      "type": "constructor"
    },
    {
      "anonymous": false,
      "inputs": [
        {
          "indexed": true,
          "internalType": "contract IERC20Upgradeable",
          "name": "token",
          "type": "address"
        },
        {
          "indexed": false,
          "internalType": "address",
          "name": "to",
          "type": "address"
        },
        {
          "indexed": false,
          "internalType": "uint256",
          "name": "amount",
          "type": "uint256"
        }
      ],
      "name": "ERC20PaymentReleased",
      "type": "event"
    },
    {
      "anonymous": false,
      "inputs": [
        {
          "indexed": false,
          "internalType": "address",
          "name": "account",
          "type": "address"
        },
        {
          "indexed": false,
          "internalType": "uint256",
          "name": "shares",
          "type": "uint256"
        }
      ],
      "name": "PayeeAdded",
      "type": "event"
    },
    {
      "anonymous": false,
      "inputs": [
        {
          "indexed": false,
          "internalType": "address",
          "name": "to",
          "type": "address"
        }
      ],
      "name": "PaymentFailed",
      "type": "event"
    },
    {
      "anonymous": false,
      "inputs": [
        {
          "indexed": false,
          "internalType": "address",
          "name": "from",
          "type": "address"
        },
        {
          "indexed": false,
          "internalType": "uint256",
          "name": "amount",
          "type": "uint256"
        }
      ],
      "name": "PaymentReceived",
      "type": "event"
    },
    {
      "anonymous": false,
      "inputs": [
        {
          "indexed": false,
          "internalType": "address",
          "name": "to",
          "type": "address"
        },
        {
          "indexed": false,
          "internalType": "uint256",
          "name": "amount",
          "type": "uint256"
        }
      ],
      "name": "PaymentReleased",
      "type": "event"
    },
    {
      "inputs": [
        {
          "components": [
            {
              "internalType": "address payable",
              "name": "payee",
              "type": "address"
            },
            {
              "internalType": "uint16",
              "name": "bps",
              "type": "uint16"
            }
          ],
          "internalType": "struct ISplitter.Shares[]",
          "name": "shares",
          "type": "tuple[]"
        }
      ],
      "name": "initialize",
      "outputs": [],
      "stateMutability": "nonpayable",
      "type": "function"
    },
    {
      "inputs": [
        {
          "internalType": "uint256",
          "name": "index",
          "type": "uint256"
        }
      ],
      "name": "payee",
      "outputs": [
        {
          "internalType": "address",
          "name": "",
          "type": "address"
        }
      ],
      "stateMutability": "view",
      "type": "function"
    },
    {
      "inputs": [
        {
          "internalType": "address payable",
          "name": "account",
          "type": "address"
        }
      ],
      "name": "release",
      "outputs": [],
      "stateMutability": "nonpayable",
      "type": "function"
    },
    {
      "inputs": [
        {
          "internalType": "contract IERC20Upgradeable",
          "name": "token",
          "type": "address"
        },
        {
          "internalType": "address",
          "name": "account",
          "type": "address"
        }
      ],
      "name": "release",
      "outputs": [],
      "stateMutability": "nonpayable",
      "type": "function"
    },
    {
      "inputs": [
        {
          "internalType": "contract IERC20Upgradeable",
          "name": "token",
          "type": "address"
        },
        {
          "internalType": "address",
          "name": "account",
          "type": "address"
        }
      ],
      "name": "released",
      "outputs": [
        {
          "internalType": "uint256",
          "name": "",
          "type": "uint256"
        }
      ],
      "stateMutability": "view",
      "type": "function"
    },
    {
      "inputs": [
        {
          "internalType": "address",
          "name": "account",
          "type": "address"
        }
      ],
      "name": "released",
      "outputs": [
        {
          "internalType": "uint256",
          "name": "",
          "type": "uint256"
        }
      ],
      "stateMutability": "view",
      "type": "function"
    },
    {
      "inputs": [],
      "name": "shake",
      "outputs": [],
      "stateMutability": "nonpayable",
      "type": "function"
    },
    {
      "inputs": [
        {
          "internalType": "address",
          "name": "account",
          "type": "address"
        }
      ],
      "name": "shares",
      "outputs": [
        {
          "internalType": "uint256",
          "name": "",
          "type": "uint256"
        }
      ],
      "stateMutability": "view",
      "type": "function"
    },
    {
      "inputs": [
        {
          "internalType": "contract IERC20Upgradeable",
          "name": "token",
          "type": "address"
        }
      ],
      "name": "totalReleased",
      "outputs": [
        {
          "internalType": "uint256",
          "name": "",
          "type": "uint256"
        }
      ],
      "stateMutability": "view",
      "type": "function"
    },
    {
      "inputs": [],
      "name": "totalReleased",
      "outputs": [
        {
          "internalType": "uint256",
          "name": "",
          "type": "uint256"
        }
      ],
      "stateMutability": "view",
      "type": "function"
    },
    {
      "inputs": [],
      "name": "totalShares",
      "outputs": [
        {
          "internalType": "uint256",
          "name": "",
          "type": "uint256"
        }
      ],
      "stateMutability": "view",
      "type": "function"
    },
    {
      "stateMutability": "payable",
      "type": "receive"
    }
  ],
  "transactionHash": "0x57d6b020ddc7675db8fa02de7b7e3f9b4b8cbac0c77be71fb58af60a7c82bb6a",
  "args": [],
  "solcInputHash": "128ba58fa3fb40d5fcb9050e6e7bc018",
  "bytecode": "0x608060405234801561001057600080fd5b50600054610100900460ff168061002a575060005460ff16155b6100915760405162461bcd60e51b815260206004820152602e60248201527f496e697469616c697a61626c653a20636f6e747261637420697320616c72656160448201526d191e481a5b9a5d1a585b1a5e995960921b606482015260840160405180910390fd5b600054610100900460ff161580156100b3576000805461ffff19166101011790555b80156100c5576000805461ff00191690555b50611de7806100d56000396000f3fe6080604052600436106100c05760003560e01c80638b83209b11610074578063ce7c2ac21161004e578063ce7c2ac214610291578063d79779b2146102d4578063e33b7de31461031757600080fd5b80638b83209b146101e95780639852595c1461022e578063cb88ac161461027157600080fd5b8063406072a9116100a5578063406072a91461016157806348b75044146101b4578063825f98d4146101d457600080fd5b8063191655871461011b5780633a98ef391461013d57600080fd5b36610116577f6ef95f06320e7a25a04a175ca677b7052bdd97131872c2192525a629f51be770336040805173ffffffffffffffffffffffffffffffffffffffff90921682523460208301520160405180910390a1005b600080fd5b34801561012757600080fd5b5061013b6101363660046119a8565b61032c565b005b34801561014957600080fd5b506033545b6040519081526020015b60405180910390f35b34801561016d57600080fd5b5061014e61017c3660046119c5565b73ffffffffffffffffffffffffffffffffffffffff918216600090815260396020908152604080832093909416825291909152205490565b3480156101c057600080fd5b5061013b6101cf3660046119c5565b610573565b3480156101e057600080fd5b5061013b6108af565b3480156101f557600080fd5b506102096102043660046119fe565b6109ae565b60405173ffffffffffffffffffffffffffffffffffffffff9091168152602001610158565b34801561023a57600080fd5b5061014e6102493660046119a8565b73ffffffffffffffffffffffffffffffffffffffff1660009081526036602052604090205490565b34801561027d57600080fd5b5061013b61028c366004611abe565b6109eb565b34801561029d57600080fd5b5061014e6102ac3660046119a8565b73ffffffffffffffffffffffffffffffffffffffff1660009081526035602052604090205490565b3480156102e057600080fd5b5061014e6102ef3660046119a8565b73ffffffffffffffffffffffffffffffffffffffff1660009081526038602052604090205490565b34801561032357600080fd5b5060345461014e565b73ffffffffffffffffffffffffffffffffffffffff81166000908152603560205260409020546103e3576040517f08c379a000000000000000000000000000000000000000000000000000000000815260206004820152602660248201527f5061796d656e7453706c69747465723a206163636f756e7420686173206e6f2060448201527f736861726573000000000000000000000000000000000000000000000000000060648201526084015b60405180910390fd5b60006103ee60345490565b6103f89047611bca565b90506000610432838361042d8673ffffffffffffffffffffffffffffffffffffffff1660009081526036602052604090205490565b610d08565b9050806104c1576040517f08c379a000000000000000000000000000000000000000000000000000000000815260206004820152602b60248201527f5061796d656e7453706c69747465723a206163636f756e74206973206e6f742060448201527f647565207061796d656e7400000000000000000000000000000000000000000060648201526084016103da565b73ffffffffffffffffffffffffffffffffffffffff8316600090815260366020526040812080548392906104f6908490611bca565b92505081905550806034600082825461050f9190611bca565b9091555061051f90508382610d5d565b6040805173ffffffffffffffffffffffffffffffffffffffff85168152602081018390527fdf20fd1e76bc69d672e4814fafb2c449bba3a5369d8359adf9e05e6fde87b056910160405180910390a1505050565b73ffffffffffffffffffffffffffffffffffffffff8116600090815260356020526040902054610625576040517f08c379a000000000000000000000000000000000000000000000000000000000815260206004820152602660248201527f5061796d656e7453706c69747465723a206163636f756e7420686173206e6f2060448201527f736861726573000000000000000000000000000000000000000000000000000060648201526084016103da565b73ffffffffffffffffffffffffffffffffffffffff82166000908152603860205260408120546040517f70a0823100000000000000000000000000000000000000000000000000000000815230600482015273ffffffffffffffffffffffffffffffffffffffff8516906370a082319060240160206040518083038186803b1580156106b057600080fd5b505afa1580156106c4573d6000803e3d6000fd5b505050506040513d601f19601f820116820180604052508101906106e89190611be2565b6106f29190611bca565b90506000610738838361042d878773ffffffffffffffffffffffffffffffffffffffff918216600090815260396020908152604080832093909416825291909152205490565b9050806107c7576040517f08c379a000000000000000000000000000000000000000000000000000000000815260206004820152602b60248201527f5061796d656e7453706c69747465723a206163636f756e74206973206e6f742060448201527f647565207061796d656e7400000000000000000000000000000000000000000060648201526084016103da565b73ffffffffffffffffffffffffffffffffffffffff80851660009081526039602090815260408083209387168352929052908120805483929061080b908490611bca565b909155505073ffffffffffffffffffffffffffffffffffffffff841660009081526038602052604081208054839290610845908490611bca565b909155506108569050848483610ebc565b6040805173ffffffffffffffffffffffffffffffffffffffff8581168252602082018490528616917f3be5b7a71e84ed12875d241991c70855ac5817d847039e17a9d895c1ceb0f18a910160405180910390a250505050565b60005b6065548110156109ab573063191655876108cb836109ae565b6040517fffffffff0000000000000000000000000000000000000000000000000000000060e084901b16815273ffffffffffffffffffffffffffffffffffffffff9091166004820152602401600060405180830381600087803b15801561093157600080fd5b505af1925050508015610942575060015b610999577f36899e48161ee4504f5f89aa55f7aed73460d464cb62f64e03057df7dbcdd0aa610970826109ae565b60405173ffffffffffffffffffffffffffffffffffffffff909116815260200160405180910390a15b806109a381611bfb565b9150506108b2565b50565b6000603782815481106109c3576109c3611c34565b60009182526020909120015473ffffffffffffffffffffffffffffffffffffffff1692915050565b600054610100900460ff1680610a04575060005460ff16155b610a90576040517f08c379a000000000000000000000000000000000000000000000000000000000815260206004820152602e60248201527f496e697469616c697a61626c653a20636f6e747261637420697320616c72656160448201527f647920696e697469616c697a656400000000000000000000000000000000000060648201526084016103da565b600054610100900460ff16158015610acf57600080547fffffffffffffffffffffffffffffffffffffffffffffffffffffffffffff0000166101011790555b6000825167ffffffffffffffff811115610aeb57610aeb611a17565b604051908082528060200260200182016040528015610b14578160200160208202803683370190505b5090506000835167ffffffffffffffff811115610b3357610b33611a17565b604051908082528060200260200182016040528015610b5c578160200160208202803683370190505b50845160655590506000805b8551811015610c5c57858181518110610b8357610b83611c34565b602002602001015160000151848281518110610ba157610ba1611c34565b602002602001019073ffffffffffffffffffffffffffffffffffffffff16908173ffffffffffffffffffffffffffffffffffffffff1681525050858181518110610bed57610bed611c34565b60200260200101516020015161ffff16838281518110610c0f57610c0f611c34565b602002602001018181525050858181518110610c2d57610c2d611c34565b60200260200101516020015161ffff1682610c489190611bca565b915080610c5481611bfb565b915050610b68565b508061271014610cc8576040517f08c379a000000000000000000000000000000000000000000000000000000000815260206004820152601b60248201527f53686172657320646f6e27742073756d20757020746f2031303025000000000060448201526064016103da565b610cd28383610f49565b5050508015610d0457600080547fffffffffffffffffffffffffffffffffffffffffffffffffffffffffffff00ff1690555b5050565b60335473ffffffffffffffffffffffffffffffffffffffff841660009081526035602052604081205490918391610d3f9086611c63565b610d499190611ca0565b610d539190611cdb565b90505b9392505050565b80471015610dc7576040517f08c379a000000000000000000000000000000000000000000000000000000000815260206004820152601d60248201527f416464726573733a20696e73756666696369656e742062616c616e636500000060448201526064016103da565b60008273ffffffffffffffffffffffffffffffffffffffff168260405160006040518083038185875af1925050503d8060008114610e21576040519150601f19603f3d011682016040523d82523d6000602084013e610e26565b606091505b5050905080610eb7576040517f08c379a000000000000000000000000000000000000000000000000000000000815260206004820152603a60248201527f416464726573733a20756e61626c6520746f2073656e642076616c75652c207260448201527f6563697069656e74206d6179206861766520726576657274656400000000000060648201526084016103da565b505050565b6040805173ffffffffffffffffffffffffffffffffffffffff8416602482015260448082018490528251808303909101815260649091019091526020810180517bffffffffffffffffffffffffffffffffffffffffffffffffffffffff167fa9059cbb00000000000000000000000000000000000000000000000000000000179052610eb7908490611072565b600054610100900460ff1680610f62575060005460ff16155b610fee576040517f08c379a000000000000000000000000000000000000000000000000000000000815260206004820152602e60248201527f496e697469616c697a61626c653a20636f6e747261637420697320616c72656160448201527f647920696e697469616c697a656400000000000000000000000000000000000060648201526084016103da565b600054610100900460ff1615801561102d57600080547fffffffffffffffffffffffffffffffffffffffffffffffffffffffffffff0000166101011790555b61103561117e565b61103f8383611293565b8015610eb757600080547fffffffffffffffffffffffffffffffffffffffffffffffffffffffffffff00ff169055505050565b60006110d4826040518060400160405280602081526020017f5361666545524332303a206c6f772d6c6576656c2063616c6c206661696c65648152508573ffffffffffffffffffffffffffffffffffffffff166115019092919063ffffffff16565b805190915015610eb757808060200190518101906110f29190611cf2565b610eb7576040517f08c379a000000000000000000000000000000000000000000000000000000000815260206004820152602a60248201527f5361666545524332303a204552433230206f7065726174696f6e20646964206e60448201527f6f7420737563636565640000000000000000000000000000000000000000000060648201526084016103da565b600054610100900460ff1680611197575060005460ff16155b611223576040517f08c379a000000000000000000000000000000000000000000000000000000000815260206004820152602e60248201527f496e697469616c697a61626c653a20636f6e747261637420697320616c72656160448201527f647920696e697469616c697a656400000000000000000000000000000000000060648201526084016103da565b600054610100900460ff1615801561126257600080547fffffffffffffffffffffffffffffffffffffffffffffffffffffffffffff0000166101011790555b80156109ab57600080547fffffffffffffffffffffffffffffffffffffffffffffffffffffffffffff00ff16905550565b600054610100900460ff16806112ac575060005460ff16155b611338576040517f08c379a000000000000000000000000000000000000000000000000000000000815260206004820152602e60248201527f496e697469616c697a61626c653a20636f6e747261637420697320616c72656160448201527f647920696e697469616c697a656400000000000000000000000000000000000060648201526084016103da565b600054610100900460ff1615801561137757600080547fffffffffffffffffffffffffffffffffffffffffffffffffffffffffffff0000166101011790555b8151835114611408576040517f08c379a000000000000000000000000000000000000000000000000000000000815260206004820152603260248201527f5061796d656e7453706c69747465723a2070617965657320616e64207368617260448201527f6573206c656e677468206d69736d61746368000000000000000000000000000060648201526084016103da565b6000835111611473576040517f08c379a000000000000000000000000000000000000000000000000000000000815260206004820152601a60248201527f5061796d656e7453706c69747465723a206e6f2070617965657300000000000060448201526064016103da565b60005b83518110156114cd576114bb84828151811061149457611494611c34565b60200260200101518483815181106114ae576114ae611c34565b6020026020010151611510565b806114c581611bfb565b915050611476565b508015610eb757600080547fffffffffffffffffffffffffffffffffffffffffffffffffffffffffffff00ff169055505050565b6060610d5384846000856117b3565b73ffffffffffffffffffffffffffffffffffffffff82166115b3576040517f08c379a000000000000000000000000000000000000000000000000000000000815260206004820152602c60248201527f5061796d656e7453706c69747465723a206163636f756e74206973207468652060448201527f7a65726f2061646472657373000000000000000000000000000000000000000060648201526084016103da565b6000811161161d576040517f08c379a000000000000000000000000000000000000000000000000000000000815260206004820152601d60248201527f5061796d656e7453706c69747465723a2073686172657320617265203000000060448201526064016103da565b73ffffffffffffffffffffffffffffffffffffffff8216600090815260356020526040902054156116d0576040517f08c379a000000000000000000000000000000000000000000000000000000000815260206004820152602b60248201527f5061796d656e7453706c69747465723a206163636f756e7420616c726561647960448201527f206861732073686172657300000000000000000000000000000000000000000060648201526084016103da565b60378054600181019091557f42a7b7dd785cd69714a189dffb3fd7d7174edc9ece837694ce50f7078f7c31ae0180547fffffffffffffffffffffffff00000000000000000000000000000000000000001673ffffffffffffffffffffffffffffffffffffffff8416908117909155600090815260356020526040902081905560335461175d908290611bca565b6033556040805173ffffffffffffffffffffffffffffffffffffffff84168152602081018390527f40c340f65e17194d14ddddb073d3c9f888e3cb52b5aae0c6c7706b4fbc905fac910160405180910390a15050565b606082471015611845576040517f08c379a000000000000000000000000000000000000000000000000000000000815260206004820152602660248201527f416464726573733a20696e73756666696369656e742062616c616e636520666f60448201527f722063616c6c000000000000000000000000000000000000000000000000000060648201526084016103da565b843b6118ad576040517f08c379a000000000000000000000000000000000000000000000000000000000815260206004820152601d60248201527f416464726573733a2063616c6c20746f206e6f6e2d636f6e747261637400000060448201526064016103da565b6000808673ffffffffffffffffffffffffffffffffffffffff1685876040516118d69190611d44565b60006040518083038185875af1925050503d8060008114611913576040519150601f19603f3d011682016040523d82523d6000602084013e611918565b606091505b5091509150611928828286611933565b979650505050505050565b60608315611942575081610d56565b8251156119525782518084602001fd5b816040517f08c379a00000000000000000000000000000000000000000000000000000000081526004016103da9190611d60565b73ffffffffffffffffffffffffffffffffffffffff811681146109ab57600080fd5b6000602082840312156119ba57600080fd5b8135610d5681611986565b600080604083850312156119d857600080fd5b82356119e381611986565b915060208301356119f381611986565b809150509250929050565b600060208284031215611a1057600080fd5b5035919050565b7f4e487b7100000000000000000000000000000000000000000000000000000000600052604160045260246000fd5b6040805190810167ffffffffffffffff81118282101715611a6957611a69611a17565b60405290565b604051601f82017fffffffffffffffffffffffffffffffffffffffffffffffffffffffffffffffe016810167ffffffffffffffff81118282101715611ab657611ab6611a17565b604052919050565b60006020808385031215611ad157600080fd5b823567ffffffffffffffff80821115611ae957600080fd5b818501915085601f830112611afd57600080fd5b813581811115611b0f57611b0f611a17565b611b1d848260051b01611a6f565b818152848101925060069190911b830184019087821115611b3d57600080fd5b928401925b818410156119285760408489031215611b5b5760008081fd5b611b63611a46565b8435611b6e81611986565b81528486013561ffff81168114611b855760008081fd5b8187015283526040939093019291840191611b42565b7f4e487b7100000000000000000000000000000000000000000000000000000000600052601160045260246000fd5b60008219821115611bdd57611bdd611b9b565b500190565b600060208284031215611bf457600080fd5b5051919050565b60007fffffffffffffffffffffffffffffffffffffffffffffffffffffffffffffffff821415611c2d57611c2d611b9b565b5060010190565b7f4e487b7100000000000000000000000000000000000000000000000000000000600052603260045260246000fd5b6000817fffffffffffffffffffffffffffffffffffffffffffffffffffffffffffffffff0483118215151615611c9b57611c9b611b9b565b500290565b600082611cd6577f4e487b7100000000000000000000000000000000000000000000000000000000600052601260045260246000fd5b500490565b600082821015611ced57611ced611b9b565b500390565b600060208284031215611d0457600080fd5b81518015158114610d5657600080fd5b60005b83811015611d2f578181015183820152602001611d17565b83811115611d3e576000848401525b50505050565b60008251611d56818460208701611d14565b9190910192915050565b6020815260008251806020840152611d7f816040850160208701611d14565b601f017fffffffffffffffffffffffffffffffffffffffffffffffffffffffffffffffe016919091016040019291505056fea26469706673582212202b50e2cbaef524a20dc3254c641cc2393d10a3a4954ee6006400712cd182559e64736f6c63430008090033",
  "devdoc": {
    "kind": "dev",
    "methods": {
      "payee(uint256)": {
        "details": "Getter for the address of the payee number `index`."
      },
      "release(address)": {
        "details": "Triggers a transfer to `account` of the amount of Ether they are owed, according to their percentage of the total shares and their previous withdrawals."
      },
      "release(address,address)": {
        "details": "Triggers a transfer to `account` of the amount of `token` tokens they are owed, according to their percentage of the total shares and their previous withdrawals. `token` must be the address of an IERC20 contract."
      },
      "released(address)": {
        "details": "Getter for the amount of Ether already released to a payee."
      },
      "released(address,address)": {
        "details": "Getter for the amount of `token` tokens already released to a payee. `token` should be the address of an IERC20 contract."
      },
      "shares(address)": {
        "details": "Getter for the amount of shares held by an account."
      },
      "totalReleased()": {
        "details": "Getter for the total amount of Ether already released."
      },
      "totalReleased(address)": {
        "details": "Getter for the total amount of `token` already released. `token` should be the address of an IERC20 contract."
      },
      "totalShares()": {
        "details": "Getter for the total shares held by payees."
      }
    },
    "version": 1
  },
  "userdoc": {
    "kind": "user",
    "methods": {},
    "version": 1
  },
  "storageLayout": {
    "storage": [
      {
        "astId": 623,
        "contract": "contracts/ShakeableSplitter.sol:ShakeableSplitter",
        "label": "_initialized",
        "offset": 0,
        "slot": "0",
        "type": "t_bool"
      },
      {
        "astId": 626,
        "contract": "contracts/ShakeableSplitter.sol:ShakeableSplitter",
        "label": "_initializing",
        "offset": 1,
        "slot": "0",
        "type": "t_bool"
      },
      {
        "astId": 2275,
        "contract": "contracts/ShakeableSplitter.sol:ShakeableSplitter",
        "label": "__gap",
        "offset": 0,
        "slot": "1",
        "type": "t_array(t_uint256)50_storage"
      },
      {
        "astId": 165,
        "contract": "contracts/ShakeableSplitter.sol:ShakeableSplitter",
        "label": "_totalShares",
        "offset": 0,
        "slot": "51",
        "type": "t_uint256"
      },
      {
        "astId": 167,
        "contract": "contracts/ShakeableSplitter.sol:ShakeableSplitter",
        "label": "_totalReleased",
        "offset": 0,
        "slot": "52",
        "type": "t_uint256"
      },
      {
        "astId": 171,
        "contract": "contracts/ShakeableSplitter.sol:ShakeableSplitter",
        "label": "_shares",
        "offset": 0,
        "slot": "53",
        "type": "t_mapping(t_address,t_uint256)"
      },
      {
        "astId": 175,
        "contract": "contracts/ShakeableSplitter.sol:ShakeableSplitter",
        "label": "_released",
        "offset": 0,
        "slot": "54",
        "type": "t_mapping(t_address,t_uint256)"
      },
      {
        "astId": 178,
        "contract": "contracts/ShakeableSplitter.sol:ShakeableSplitter",
        "label": "_payees",
        "offset": 0,
        "slot": "55",
        "type": "t_array(t_address)dyn_storage"
      },
      {
        "astId": 183,
        "contract": "contracts/ShakeableSplitter.sol:ShakeableSplitter",
        "label": "_erc20TotalReleased",
        "offset": 0,
        "slot": "56",
        "type": "t_mapping(t_contract(IERC20Upgradeable)741,t_uint256)"
      },
      {
        "astId": 190,
        "contract": "contracts/ShakeableSplitter.sol:ShakeableSplitter",
        "label": "_erc20Released",
        "offset": 0,
        "slot": "57",
        "type": "t_mapping(t_contract(IERC20Upgradeable)741,t_mapping(t_address,t_uint256))"
      },
      {
        "astId": 594,
        "contract": "contracts/ShakeableSplitter.sol:ShakeableSplitter",
        "label": "__gap",
        "offset": 0,
        "slot": "58",
        "type": "t_array(t_uint256)43_storage"
      },
      {
        "astId": 5689,
        "contract": "contracts/ShakeableSplitter.sol:ShakeableSplitter",
        "label": "_payees",
        "offset": 0,
        "slot": "101",
        "type": "t_uint256"
      }
    ],
    "types": {
      "t_address": {
        "encoding": "inplace",
        "label": "address",
        "numberOfBytes": "20"
      },
      "t_array(t_address)dyn_storage": {
        "base": "t_address",
        "encoding": "dynamic_array",
        "label": "address[]",
        "numberOfBytes": "32"
      },
      "t_array(t_uint256)43_storage": {
        "base": "t_uint256",
        "encoding": "inplace",
        "label": "uint256[43]",
        "numberOfBytes": "1376"
      },
      "t_array(t_uint256)50_storage": {
        "base": "t_uint256",
        "encoding": "inplace",
        "label": "uint256[50]",
        "numberOfBytes": "1600"
      },
      "t_bool": {
        "encoding": "inplace",
        "label": "bool",
        "numberOfBytes": "1"
      },
      "t_contract(IERC20Upgradeable)741": {
        "encoding": "inplace",
        "label": "contract IERC20Upgradeable",
        "numberOfBytes": "20"
      },
      "t_mapping(t_address,t_uint256)": {
        "encoding": "mapping",
        "key": "t_address",
        "label": "mapping(address => uint256)",
        "numberOfBytes": "32",
        "value": "t_uint256"
      },
      "t_mapping(t_contract(IERC20Upgradeable)741,t_mapping(t_address,t_uint256))": {
        "encoding": "mapping",
        "key": "t_contract(IERC20Upgradeable)741",
        "label": "mapping(contract IERC20Upgradeable => mapping(address => uint256))",
        "numberOfBytes": "32",
        "value": "t_mapping(t_address,t_uint256)"
      },
      "t_mapping(t_contract(IERC20Upgradeable)741,t_uint256)": {
        "encoding": "mapping",
        "key": "t_contract(IERC20Upgradeable)741",
        "label": "mapping(contract IERC20Upgradeable => uint256)",
        "numberOfBytes": "32",
        "value": "t_uint256"
      },
      "t_uint256": {
        "encoding": "inplace",
        "label": "uint256",
        "numberOfBytes": "32"
      }
    }
  }
}