{
  "address": "0xa622D009419C1Cc222Faf9D9619a98D8D70bD34E",
  "abi": [
    {
      "inputs": [
        {
          "internalType": "address",
          "name": "_implementation",
          "type": "address"
        }
      ],
      "stateMutability": "nonpayable",
      "type": "constructor"
    },
    {
      "anonymous": false,
      "inputs": [
        {
          "indexed": true,
          "internalType": "uint256",
          "name": "index",
          "type": "uint256"
        },
        {
          "indexed": true,
          "internalType": "address",
          "name": "creator",
          "type": "address"
        },
        {
          "indexed": false,
          "internalType": "address[]",
          "name": "payees",
          "type": "address[]"
        },
        {
          "indexed": false,
          "internalType": "address",
          "name": "contractAddress",
          "type": "address"
        }
      ],
      "name": "CreatedSplitter",
      "type": "event"
    },
    {
      "inputs": [
        {
          "internalType": "address[]",
          "name": "_payees",
          "type": "address[]"
        },
        {
          "internalType": "uint256[]",
          "name": "_shares",
          "type": "uint256[]"
        }
      ],
      "name": "create",
      "outputs": [
        {
          "internalType": "address payable",
          "name": "",
          "type": "address"
        }
      ],
      "stateMutability": "nonpayable",
      "type": "function"
    },
    {
      "inputs": [
        {
          "internalType": "uint256",
          "name": "index",
          "type": "uint256"
        }
      ],
      "name": "get",
      "outputs": [
        {
          "internalType": "contract ISplitter",
          "name": "",
          "type": "address"
        }
      ],
      "stateMutability": "view",
      "type": "function"
    },
    {
      "inputs": [],
      "name": "instances",
      "outputs": [
        {
          "internalType": "uint256",
          "name": "",
          "type": "uint256"
        }
      ],
      "stateMutability": "view",
      "type": "function"
    }
  ],
  "transactionHash": "0x524267cc9c51689d872d66d5e75492f125f82b423f63661d37af18bfef05b825",
  "args": [
    "0x8ffBcc1D3807d8c00Cdb29B5E14f521465e19579"
  ],
  "solcInputHash": "8c7c421d8d13bdf3d348812404d6e65b",
  "bytecode": "0x60a060405234801561001057600080fd5b5060405161079338038061079383398101604081905261002f91610040565b6001600160a01b0316608052610070565b60006020828403121561005257600080fd5b81516001600160a01b038116811461006957600080fd5b9392505050565b6080516107026100916000396000818160bc015261020401526107026000f3fe608060405234801561001057600080fd5b50600436106100415760003560e01c80634d2ace661461004657806358d95a941461005c5780639507d39a14610094575b600080fd5b6000546040519081526020015b60405180910390f35b61006f61006a3660046104b2565b6100a7565b60405173ffffffffffffffffffffffffffffffffffffffff9091168152602001610053565b61006f6100a236600461058e565b6101fd565b6000806100b360005490565b9050600061010b7f0000000000000000000000000000000000000000000000000000000000000000836040516020016100ee91815260200190565b604051602081830303815290604052610106906105a7565b6102c3565b6040517f7fbbe46f00000000000000000000000000000000000000000000000000000000815290915073ffffffffffffffffffffffffffffffffffffffff821690637fbbe46f90610162908890889060040161063d565b600060405180830381600087803b15801561017c57600080fd5b505af1158015610190573d6000803e3d6000fd5b505050503373ffffffffffffffffffffffffffffffffffffffff16827f8d269f1a18d39803a555cfd3ad45f6838e814aabdd6ea614113cf0810fb6b96987846040516101dd929190610694565b60405180910390a36101f3600080546001019055565b9150505b92915050565b60006101f77f00000000000000000000000000000000000000000000000000000000000000008360405160200161023691815260200190565b60405160208183030381529060405261024e906105a7565b306040517f3d602d80600a3d3981f3363d3d373d3d3d363d730000000000000000000000008152606093841b60148201527f5af43d82803e903d91602b57fd5bf3ff000000000000000000000000000000006028820152921b6038830152604c8201526037808220606c830152605591012090565b60006040517f3d602d80600a3d3981f3363d3d373d3d3d363d7300000000000000000000000081528360601b60148201527f5af43d82803e903d91602b57fd5bf300000000000000000000000000000000006028820152826037826000f591505073ffffffffffffffffffffffffffffffffffffffff81166101f7576040517f08c379a000000000000000000000000000000000000000000000000000000000815260206004820152601760248201527f455243313136373a2063726561746532206661696c6564000000000000000000604482015260640160405180910390fd5b7f4e487b7100000000000000000000000000000000000000000000000000000000600052604160045260246000fd5b604051601f82017fffffffffffffffffffffffffffffffffffffffffffffffffffffffffffffffe016810167ffffffffffffffff8111828210171561041b5761041b6103a5565b604052919050565b600067ffffffffffffffff82111561043d5761043d6103a5565b5060051b60200190565b600082601f83011261045857600080fd5b8135602061046d61046883610423565b6103d4565b82815260059290921b8401810191818101908684111561048c57600080fd5b8286015b848110156104a75780358352918301918301610490565b509695505050505050565b600080604083850312156104c557600080fd5b823567ffffffffffffffff808211156104dd57600080fd5b818501915085601f8301126104f157600080fd5b8135602061050161046883610423565b82815260059290921b8401810191818101908984111561052057600080fd5b948201945b8386101561056157853573ffffffffffffffffffffffffffffffffffffffff811681146105525760008081fd5b82529482019490820190610525565b9650508601359250508082111561057757600080fd5b5061058485828601610447565b9150509250929050565b6000602082840312156105a057600080fd5b5035919050565b805160208083015191908110156105e6577fffffffffffffffffffffffffffffffffffffffffffffffffffffffffffffffff8160200360031b1b821691505b50919050565b600081518084526020808501945080840160005b8381101561063257815173ffffffffffffffffffffffffffffffffffffffff1687529582019590820190600101610600565b509495945050505050565b60408152600061065060408301856105ec565b82810360208481019190915284518083528582019282019060005b818110156106875784518352938301939183019160010161066b565b5090979650505050505050565b6040815260006106a760408301856105ec565b905073ffffffffffffffffffffffffffffffffffffffff83166020830152939250505056fea264697066735822122073da2ae25b084369c2f5c3e5b8e8e45028ac1748331c553267a7092d809f91bb64736f6c63430008090033",
  "devdoc": {
    "events": {
      "CreatedSplitter(uint256,address,address[],address)": {
        "params": {
          "contractAddress": "the address of the contract represneting the edition",
          "creator": "the edition's owner",
          "index": "the identifier of newly created edition",
          "payees": "the number of NFTs this edition consists of"
        }
      }
    },
    "kind": "dev",
    "methods": {
      "constructor": {
        "params": {
          "_implementation": "Edition implementation contract to clone"
        }
      },
      "create(address[],uint256[])": {
        "params": {
          "_payees": "list of addresses receiving a share ",
          "_shares": "list shares in bps, one per each address"
        }
      },
      "get(uint256)": {
        "params": {
          "index": "id of splitter to get contract for"
        },
        "returns": {
          "_0": "the Splitter payment contract"
        }
      },
      "instances()": {
        "returns": {
          "_0": "the number of splitter instances released so far"
        }
      }
    },
    "version": 1
  },
  "userdoc": {
    "events": {
      "CreatedSplitter(uint256,address,address[],address)": {
        "notice": "Emitted when a splitter is created. "
      }
    },
    "kind": "user",
    "methods": {
      "constructor": {
        "notice": "Initializes the factory with the address of the implementation contract template "
      },
      "create(address[],uint256[])": {
        "notice": "Creates a new splitter contract as a factory with a deterministic address, returning the address of the newly created splitter contract. Returns the id of the created splitter contract. "
      },
      "get(uint256)": {
        "notice": "Gets a splitter given the unique identifier "
      }
    },
    "version": 1
  },
  "storageLayout": {
    "storage": [
      {
        "astId": 5703,
        "contract": "contracts/SplitterFactory.sol:SplitterFactory",
        "label": "counter",
        "offset": 0,
        "slot": "0",
        "type": "t_struct(Counter)3444_storage"
      }
    ],
    "types": {
      "t_struct(Counter)3444_storage": {
        "encoding": "inplace",
        "label": "struct Counters.Counter",
        "members": [
          {
            "astId": 3443,
            "contract": "contracts/SplitterFactory.sol:SplitterFactory",
            "label": "_value",
            "offset": 0,
            "slot": "0",
            "type": "t_uint256"
          }
        ],
        "numberOfBytes": "32"
      },
      "t_uint256": {
        "encoding": "inplace",
        "label": "uint256",
        "numberOfBytes": "32"
      }
    }
  }
}